:020000040800F2
:1000000020AE002031030008254000088534000898
:10001000313D0008F9140008976400080000000052
:10002000000000000000000000000000790200084D
:100030006915000800000000CD02000845550008C1
:100040004B0300084B0300084B0300084B03000858
:100050004B0300084B0300084B0300084B03000848
:100060004B0300084B0300084B0300084B03000838
:100070004B0300084B0300084B0300084B03000828
:100080004B0300084B0300084B0300084B03000818
:100090004B0300084B0300084B0300084B03000808
:1000A0004B0300084B0300084B0300084B030008F8
:1000B000DF560008F9560008115700084B030008E6
:1000C0004B0300084B0300084B0300084B030008D8
:1000D0004B030008A15D0008C15D00084B03000848
:1000E0004B0300084B0300084B0300084B030008B8
:1000F0004B0300084B0300084B0300084B030008A8
:100100004B0300084B030008295700084B03000865
:100110004B030008195C00084B0300084B03000860
:100120004B0300084B0300084B0300084B03000877
:100130004B0300084B0300084B0300084B03000867
:100140004B0300084B0300084B0300084B03000857
:100150004B0300084B0300084B0300084B03000847
:100160004B0300084B0300084B0300084B03000837
:100170004B0300084B0300084B0300084B03000827
:100180004B0300084B03000800F002F800F064F88D
:100190000AA090E8000C82448344AAF10107DA45E2
:1001A00001D100F059F8AFF2090EBAE80F0013F0D0
:1001B000010F18BFFB1A43F0010318471CE10000B0
:1001C0003CE100000A444FF0000C10F8013B13F032
:1001D000070408BF10F8014B1D1108BF10F8015BA0
:1001E000641E05D010F8016B641E01F8016BF9D193
:1001F00013F0080F1EBF10F8014BAD1C0C1B09D1EA
:100200006D1E58BF01F801CBFAD505E014F8016B5B
:1002100001F8016B6D1EF9D59142D6D370470000ED
:100220000023002400250026103A28BF78C1FBD8FF
:10023000520728BF30C148BF0B607047642900F0E7
:10024000CF80732900F0A682002070471FB50CF004
:1002500088FC1FBD10B510BD00F0F0FA1146FFF785
:10026000F5FF07F067FF00F00EFB03B4FFF7F2FFA6
:1002700003BC07F071FC00002A4B19680868B0E85D
:10028000F04F80F30988BFF36F8F4FF0000080F3C9
:10029000118870470000000006480068006880F37D
:1002A000088862B661B6BFF34F8FBFF36F8F00DF70
:1002B00000BF00BF08ED00E0DFF80C00016841F46A
:1002C00070010160704700BF88ED00E0EFF3098026
:1002D000BFF36F8F134B1A681EF0100F08BF20ED8D
:1002E000108A20E9F04F106008B44FF0500080F3FE
:1002F0001188BFF34F8FBFF36F8F0AF0BFFE4FF02F
:10030000000080F3118808BC19680868B0E8F04F55
:100310001EF0100F08BFB0EC108A80F30988BFF3FD
:100320006F8F704754010020EFF305807047000085
:100330000948804709480047FEE7FEE7FEE7FEE779
:10034000FEE7FEE7FEE7FEE7FEE7FEE704480549B5
:10035000054A064B70470000555500088901000802
:1003600020A8002020AE002020AA002020AA0020E3
:10037000704700000FB4044910B503AA029800F0BA
:100380000DFA10BC5DF814FB3C01002070B50C4662
:100390000546012A05D02878800600D5EA690023A1
:1003A00002E0012305E05B1C934202D2E05C0028DE
:1003B000F9D1A869E618C01AA861286A1844286209
:1003C0002846AFF3008004E0D5E9012114F8010BC1
:1003D0009047B442F8D32846AFF3008070BD0000C8
:1003E0002DE9F0410646002410687529314616A50E
:1003F00010D0AFF30080002802DA404213A507E0D6
:1004000031688A0701D512A502E0490704D511A574
:10041000012401E0AFF3008000210A2206F1240745
:1004200009E0B0FBF2FCB0FBF2F302FB1C00303041
:1004300078541846491C0028F3D123462A463046F2
:10044000BDE8F04100F023B9000000002D000000DD
:100450002B000000200000002DE9F04788460646EA
:100460000020DFF8DC90F94430623046F1688847BC
:10047000002862D0252806D0D6E901219047306AAD
:10048000401C3062F1E700254F463046F16888474E
:100490002028044607DB312C05D2381910F8200C2F
:1004A00008B10543F1E7A80701D525F004056C2C38
:1004B0000AD0682C08D04C2C38D06A2C34D0742C3C
:1004C00034D07A2C32D015E0F16827463046884780
:1004D000B842044609D16C2F26D04FF48060F168F1
:1004E000054330468847044604E06C2F1AD04FF489
:1004F000807005430CB3A4F14100192802D82034C0
:1005000045F4006542462146304635604546FFF7D2
:1005100095FE80B101280BD0ED1D25F0070000F1FC
:100520000808A2E74020E4E78020D8E70020D6E7CB
:1005300005F1040899E720469EE7306ABDE8F08798
:10054000A0DC0000032A40F2308010F0030C00F021
:10055000158011F8013BBCF1020F624498BF11F8FD
:1005600001CB00F8013B38BF11F8013BA2F10402B6
:1005700098BF00F801CB38BF00F8013B11F003032E
:1005800000F01E81083AC0F0088051F8043B083A98
:1005900051F804CBA0E80810F5E7121D5CBF51F834
:1005A000043B40F8043BAFF30080D20724BF11F8AE
:1005B000013B11F801CB48BF11F8012B24BF00F813
:1005C000013B00F801CB48BF00F8012B704702F057
:1005D000FF0343EA032242EA024200F002B84FF06E
:1005E00000020429C0F0128010F0030C00F01B8000
:1005F000CCF1040CBCF1020F18BF00F8012BA8BF0E
:1006000020F8022BA1EB0C0100F00DB85FEAC17CD1
:1006100024BF00F8012B00F8012B48BF00F8012B84
:1006200070474FF0000200B51346944696462039B5
:1006300022BFA0E80C50A0E80C50B1F12001BFF49B
:10064000F7AF090728BFA0E80C5048BF0CC05DF801
:1006500004EB890028BF40F8042B08BF704748BF4F
:1006600020F8022B11F0804F18BF00F8012B7047C3
:10067000704770477047704710B500F0D3F80068B6
:1006800010BD10B5044600F0CDF8046010BD2DE992
:10069000F0470D4699469246044600F12408016849
:1006A000880604D5E06921F01001216000E00120F6
:1006B000A84201DD471B00E00027A1697A1902EB7F
:1006C0000900081AA0612078C00602D42046AFF3C2
:1006D0000080002608E0D4E901211AF806009047BE
:1006E000206A401C761C20624E45F4DB2078C00650
:1006F0000AD52046AFF3008006E0D4E9012130207E
:100700009047206A401C2062381EA7F10107F4DCE4
:1007100007E0D4E9012118F805009047206A401C41
:100720002062281EA5F10105F3DC2046AFF300800E
:100730002078000602D50220BDE8F0870120FBE703
:1007400001694A1C02610878704700B58FB0CDE995
:1007500001310021059105497944CDE90310114685
:100760006846FFF779FE0FB000BD0000E5FFFFFF10
:1007700010B5436913B1AFF3008001E0FFF706FE47
:10078000012010BD127800F124010A7000224A7085
:100790000122EDE711684FF0FF32E9E7074B70B532
:1007A0000D467B44FFF7D1FF0446284600F03EF893
:1007B00010B14FF0FF3070BD204670BD337900009E
:1007C00010B5203AC0F00B80B1E81850203AA0E8EC
:1007D0001850B1E81850A0E81850BFF4F5AF5FEA20
:1007E000027C24BFB1E81850A0E8185044BF18C9D3
:1007F00018C0BDE810405FEA827C24BF51F8043B7A
:1008000040F8043B08BF7047D20728BF31F8023BCD
:1008100048BF11F8012B28BF20F8023B48BF00F861
:10082000012B704700487047C0A70020007B00F0F4
:100830008000704700487047C0A700207546FFF74A
:10084000F9FFAE4605006946534620F0070085468D
:1008500018B020B5FFF77AFDBDE820404FF0000644
:100860004FF000074FF000084FF0000B21F0070198
:10087000AC46ACE8C009ACE8C009ACE8C009ACE8DB
:10088000C0098D46704710B50446AFF3008020467E
:10089000BDE81040FFF7E9BC21B1826842F00102D7
:1008A000826003E0826822F00102826070470000EB
:1008B0000021084A1168084A1140D0E900231A4370
:1008C00083681A43C3681A431143044AC2F80413E5
:1008D0007047000004230140E030FCFF002001408D
:1008E00010B50121080204F0F1F900214FF48070E5
:1008F00004F0ECF910BD0146C86C80B270470246A6
:10090000002013680B400BB1012000E0002070476D
:1009100030B50246002000235068104C20400D796D
:100920000C6844EA05242043506090680C4C204039
:10093000D1E903542C438D682C434D7944EA450496
:1009400020439060D06A20F470000C7D641EE4B2F5
:10095000234340EA0350D06230BD0000FFFEFFFC9D
:10096000FDF7FFC0F0B504460D4600200021092D1B
:1009700011DDE068A5F10A0606EB4607072606FA30
:1009800007F18843A5F10A0606EB460603FA06F1CD
:100990000843E0600CE0206905EB4507072606FAEE
:1009A00007F1884305EB450603FA06F10843206189
:1009B000072A0FDA606B561E06EB86071F2606FA1B
:1009C00007F18843561E06EB860605FA06F1084332
:1009D000606322E00D2A0FDA206BD61F06EB860734
:1009E0001F2606FA07F18843D61F06EB860605FA8E
:1009F00006F10843206310E0E06AA2F10D0606EB61
:100A000086071F2606FA07F18843A2F10D0606EBBA
:100A1000860605FA06F10843E062F0BD816841F000
:100A20008041816070470000FEB5AC48D0ED000AFF
:100A30009FEDAB1A9FEDAB0A10EE810AF3EE0B0AA5
:100A400080EE201ABDEEC10A10EE106A642E00DDA1
:100A50006426A54890ED000ADFEDA40A20EE200AE6
:100A6000BDEEC00A10EE104A002C00DA6442A04825
:100A700090ED000ADFED9D0A20EE200ABDEEC00ACF
:100A800010EE105A002D00DA6D429A48007808B92D
:100A9000012000E00020974908709748007801285D
:100AA00077D196480078062818D1954890ED000A2D
:100AB000BDEEC00A10EE103A924890ED000ABDEE6D
:100AC000C00A10EE102A904890ED000ABDEEC00A50
:100AD00010EE101A8DA0FFF74DFCDCE0874800787F
:100AE000052818D18D4890ED000ABDEEC00A10EE21
:100AF000103A8B4890ED000ABDEEC00A10EE102AA5
:100B0000884890ED000ABDEEC00A10EE101A7FA0D2
:100B1000FFF730FCBFE079480078042871D18248A3
:100B20000078022818D1814890ED000ABDEEC00A75
:100B300010EE103A7E4890ED000ABDEEC00A10EEAD
:100B4000102A7C4890ED000ABDEEC00A10EE101A83
:100B50006EA0FFF70FFC9EE073480078032819D1C0
:100B6000754890ED000ABDEEC00A10EE103A7348C9
:100B700090ED000ABDEEC00A10EE102A704890ED0C
:100B8000000ABDEEC00A10EE101A60A0FFF7F2FBDB
:100B900081E084E064480078042818D1694890ED29
:100BA000000ABDEEC00A10EE103A674890ED000A48
:100BB000BDEEC00A10EE102A644890ED000ABDEEAA
:100BC000C00A10EE101A51A0FFF7D4FB63E0604892
:100BD00090ED000ABDEEC00A10EE103A5D4890EDAF
:100BE000000ABDEEC00A10EE102A5B4890ED000A24
:100BF000BDEEC00A10EE101A44A0FFF7BBFB4AE09E
:100C0000FFE73E48007803282DD1544890ED000AB4
:100C1000FDEEC00A524890ED000ABDEEC00A5148F0
:100C200090ED001ABDEEC11A8DED001A8DED010A8E
:100C3000CDED020A4C4890ED000ABDEEC00A10EE60
:100C4000103A4A4890ED000ABDEEC00A10EE102A94
:100C5000474890ED000ABDEEC00A10EE101A45A0FC
:100C6000FFF788FB17E0494890ED000ABDEEC00A87
:100C700010EE103A464890ED000ABDEEC00A10EEA4
:100C8000102A444890ED000ABDEEC00A10EE101A7A
:100C90001EA0FFF76FFB0020174908701DE01548E4
:100CA000007868B93C48007A3B49C979CDE9001021
:100CB00039484379C278017838A0FFF75BFB0CE034
:100CC0003548007A3449C979CDE900103248437972
:100CD000C278017837A0FFF74DFBFEBD1800002059
:100CE00000007A4400401C4648A700200000C8428B
:100CF0005CA70020E80200205302002059020020D7
:100D00000802002004020020600200207B432564CA
:100D10003A25643A25647D2400000000000200208A
:100D2000FC0100205C020020D0010020880000208F
:100D300084000020800000207C000020780000203B
:100D40007400002094000020900000208C000020FF
:100D5000A00000209C00002098000020B800002087
:100D6000B4000020B0000020AC000020A80000204B
:100D7000A40000207B4325643A25643A25643A2583
:100D8000643A25643A25647D240000003002002086
:100D90002C020020D80100205A2E00207B3125682B
:100DA0002025682025682025682025682025687D65
:100DB000240000007B322568202568202568202536
:100DC000682025682025687D2400000000B58DB0CE
:100DD0000121062003F02AFF0121080203F066FF2B
:100DE00001200B9003208DF8300000208DF8330097
:100DF0000BA91B4801F030FC02200B9003208DF85A
:100E0000300000208DF833000BA9154801F024FCB8
:100E10000121080203F05AFF00214FF4807003F013
:100E200055FF002007900A9009904FF480300890F9
:100E300007A8FFF73DFD002001908DF808008DF810
:100E400009000390059001208DF8180001A90548BC
:100E5000FFF75EFD01210348FFF71EFD0DB000BD49
:100E6000000402400020014010B52DED028BB0EED1
:100E7000408AF0EE608A38EEC80A8A4880ED000A9F
:100E8000894890ED000A8748D0ED000A30EE200A2C
:100E9000854880ED000A90ED000ADFED840AB4EE8B
:100EA000E00AF1EE10FA04DD9FED800A80ED000A01
:100EB0000DE07D4890ED000ADFED7D0AB4EEE00A1A
:100EC000F1EE10FA03D29FED7A0A80ED000A79481C
:100ED0000078042830D1784890ED000A7148D0EDB0
:100EE000000A60EE200A9FED751A80EE810A7448B0
:100EF000D0ED000A6C4890ED001A60EE810A9FED7B
:100F00006F1AC0EE811A30EE210A6648D0ED000A51
:100F10006C4890ED001A70EEC10A6B4890ED001A13
:100F200060EE810A9FED651AC0EE811A30EE210A4B
:100F3000664880ED000A99E05E480078022830D1CA
:100F4000634890ED000A5748D0ED000A60EE200A91
:100F50009FED5A1A80EE810A5E48D0ED000A524891
:100F600090ED001A60EE810A9FED541AC0EE811ACE
:100F700030EE210A4B48D0ED000A524890ED001A9D
:100F800070EEC10A544890ED001A60EE810A9FEDA0
:100F9000471AC0EE811A30EE210A4C4880ED000A53
:100FA00064E044480078032803D0424800780528CC
:100FB0002AD14A4890ED000A3A48D0ED000A60EE86
:100FC000200A9FED471A80EE810A4648D0ED000ABC
:100FD000354890ED001A60EE810A9FED411AC0EE8F
:100FE000811A30EE210A2F48D0ED000A354890EDE5
:100FF000001A70EEC10A3C4890ED001A01EE200A7A
:10100000324880ED000A31E0384890ED000AB1EE38
:10101000400A2448D0ED000A60EE200A9FED271A0E
:1010200080EE810A3248D0ED000A1F4890ED001A88
:1010300060EE810A9FED211AC0EE811A30EE610A3E
:101040001848D0ED000A1F4890ED001A70EEC10A52
:10105000284890ED001A60EE810A9FED141AC0EE48
:10106000811A30EE610A194880ED000A0D4890EDB2
:10107000000A144880ED000A1F4890ED000ABDEEFA
:10108000C00A10EE100A04F0B5FD012804D19FED4E
:101090001B0A054880ED000A0C4890ED000ABDECE3
:1010A000028B10BDD8000020E000002000007A4430
:1010B00000007AC4D00100208C0000200050C347FB
:1010C00094000020E400002090000020DC000020BC
:1010D0008000002088000020840000207400002090
:1010E0000000C8427C00002078000020980000200A
:1010F000A00000209C00002018000020000000003C
:101100001CB506F0F7FF0190DBE10A2101A809F008
:1011100087FDEC48006840F6B831884204DAE948B7
:101120000068401CE749086002F042F8322006F0EF
:10113000CBFD012802D002282CD11AE0E248007829
:10114000401CE149087008460078062802D106F0E4
:101150005FFF0DE0DC480078052802D106F04EFD67
:1011600006E0D9480078062802DD0020D64908703C
:1011700010E0D648007808B9012000E00020D349EB
:1011800008700846007820B94FF4E161D048FFF7B5
:1011900048FA00BF00BFCF480078CB4909788842A1
:1011A0000DD0CC480078401CCA49087002F082FF7C
:1011B000C8480078062802DD0020C6490870C248E9
:1011C0000078062802D0002000F098F9BE48007888
:1011D00010B901F0C9FA36E0BB480078012802D105
:1011E00003F0FAF92FE0B8480078022802D101F0A4
:1011F00057FF28E0B4480078032802D102F04CFBE6
:1012000021E0B1480078042802D102F097FC1AE0EE
:10121000AD480078062802D101F0CAFD13E0AE48BF
:101220000078401CC0B2AC490870042804D10020EA
:10123000087001F069FC06E0A7480078042802DD88
:101240000020A5490870A54890ED000ABDEEC00A2F
:1012500010EE100A04F0CEFC002879D1A04890EDE1
:10126000021AF0EE410A90ED001AB0EE410A02F0C7
:101270000BF900EE100AB8EEC00A994880ED010A99
:10128000984890ED021AF0EE410A90ED001AB0EE87
:10129000410A02F051F900EE100AB8EEC00A914876
:1012A00080ED010A904890ED021AF0EE410A90EDAF
:1012B000001AB0EE410A02F097F900EE100AB8EEFB
:1012C000C00A894880ED010A884890ED021AF0EEC4
:1012D000410A90ED001AB0EE410A02F0DDF900EE8D
:1012E000100AB8EEC00A814880ED010A44F2740089
:1012F00002F0C8FC7E480078062828D2DFE800F01B
:1013000003294A6E91B60020784C009094ED010AB2
:10131000BDEEC00A10EE103A734C94ED010ABDEE1A
:10132000C00A10EE102A6F4C94ED010AB1EE400A8B
:10133000BDEEC00A10EE101A694C94ED010AB1EE30
:10134000400ABDEEC00A10EE100A03F0BBFFB0E089
:10135000B0E00020654C009094ED010ABDEEC00A9B
:1013600010EE103A604C94ED010ABDEEC00A10EE8A
:10137000102A5C4C94ED010ABDEEC00A10EE101A62
:10138000574C94ED010ABDEEC00A10EE100A03F0AE
:1013900099FF8EE057480068544C009094ED010A84
:1013A000BDEEC00A10EE103A4F4C94ED010ABDEEAE
:1013B000C00A10EE102A4B4C94ED010ABDEEC00A93
:1013C00010EE101A464C94ED010AB1EE400ABDEE43
:1013D000C00A10EE100A03F075FF6AE00020434CCB
:1013E000009094ED010ABDEEC00A10EE103A3E4C9A
:1013F00094ED010ABDEEC00A10EE102A394C94EDAE
:10140000010ABDEEC00A10EE101A354C94ED010A27
:10141000B1EE400ABDEEC00A10EE100A03F052FF12
:1014200047E00020314C009094ED010ABDEEC00A67
:1014300010EE103A2C4C94ED010ABDEEC00A10EEED
:10144000102A284C94ED010AB1EE400ABDEEC00A04
:1014500010EE101A224C94ED010AB1EE400ABDEED6
:10146000C00A10EE100A03F02DFF22E000201F4CEE
:10147000009094ED010ABDEEC00A10EE103A1A4C2D
:1014800094ED010ABDEEC00A10EE102A154C94ED41
:10149000010ABDEEC00A10EE101A114C94ED010ABB
:1014A000B1EE400ABDEEC00A10EE100A03F00AFFCA
:1014B00000BF06E00020034602460146009003F00C
:1014C00001FF22E6540200205902002058020020A9
:1014D000642E00206D0200206C0200201800002005
:1014E00048A700205CA7002070A7002084A7002048
:1014F000D0010020D401002000BFFEE770B50446F3
:101500002CB94FF48071074801F011F909E0681C0B
:101510000546A04205DB4FF48071024801F009F94D
:10152000002570BD000002401CB50121084603F0F3
:101530007DFB4FF48070009001208DF804000020A6
:101540008DF8060003208DF8050002208DF80700B5
:101550006946044801F080F84FF48071014801F0B9
:10156000E6F81CBD000002407047000000221B4846
:101570000078012830D1002125E0194800EBC10096
:1015800090ED010ADFED170AB4EEE00AF1EE10FA71
:101590000BDC134800EBC10090ED010ADFED120AED
:1015A000B4EEE00AF1EE10FA0CD20D4830F831003A
:1015B000002807DD0A4830F83100B0F52F7F01DA46
:1015C000501CC2B2491CB1F5906FD6DB002A01DD78
:1015D000012070470020FCE70020FAE758020020B5
:1015E000642E0020000096430000704210B52DEDDF
:1015F000028BB0EE408AF0EE608A38EEC80A3B48B3
:1016000080ED000A3A4890ED000A3848D0ED000A13
:1016100030EE200A364880ED000A90ED000ADFED3A
:10162000350AB4EEE00AF1EE10FA04DD9FED310A5E
:1016300080ED000A0DE02E4890ED000ADFED2E0A45
:10164000B4EEE00AF1EE10FA03D29FED2B0A80ED22
:10165000000A2A4890ED000A2448D0ED000A60EE06
:10166000200A9FED271A80EE810A2648D0ED000A55
:101670001F4890ED001A60EE810A9FED211AC0EE1E
:10168000811A30EE210A1948D0ED000A1E4890ED6B
:10169000001A70EEC10A1D4890ED001A60EE810A32
:1016A0009FED171AC0EE811A30EE210A184880ED1E
:1016B000000A0E4890ED000A134880ED000A154814
:1016C00090ED000ABDEEC00A10EE100A04F092FA86
:1016D000012804D19FED100A054880ED000A0C484E
:1016E00090ED000ABDEC028B10BD0000E800002068
:1016F000F000002000007A4400007AC4A40000201A
:101700000000C842AC000020F4000020A800002027
:10171000EC0000201800002000000000002000E085
:10172000401C1E28FCDB704700B52DED108B89B0E6
:10173000B0EE408AF0EE609AF0EE418AB0EE0C0A0C
:10174000B0EE409AFC48007818B1FB4800780128B8
:1017500014D1B0EE681AF0EE690AB0EE480A03F050
:10176000FFFDF64890ED000AB0EE408A90ED010AC8
:10177000F0EE409A90ED020AF0EE408AEE480078D2
:10178000002879D139EE880AED48D0ED000AED48FD
:1017900090ED001A70EE810A08EEE00AEA4880ED4A
:1017A000020AB1EE690A30EE080AE548D0ED000AF7
:1017B000E44890ED001A70EE810A08EEE00AE34872
:1017C00080ED020A39EE880ADD48D0ED000ADD48D6
:1017D00090ED001A70EE810A08EEA00ADC4880ED58
:1017E000020AB1EE690A30EE080AD548D0ED000AC7
:1017F000D44890ED001A70EE810A08EEA00AD54890
:1018000080ED020AD048D0ED020AB0EE600AB0EED8
:10181000491AF1EE490A08F03BFFCB4880ED020A75
:10182000CA48D0ED020AB0EE600AB0EE491AF1EEF5
:10183000490A08F02DFFC54880ED020AC448D0EDE2
:10184000020AB0EE600AB0EE491AF1EE490A08F059
:101850001FFFBF4880ED020ABE48D0ED020AB0EE7D
:10186000600AB0EE491AF1EE490A08F011FFB948D2
:1018700080ED020A38E3FFE7AF48007801287AD10B
:10188000B548D0ED000AB0EE690A00EEA80AAE48ED
:1018900080ED020AB04890ED000A20EE280A10EE12
:1018A000101A08460BF0ECF841EC1B0BB6EE000AE0
:1018B00029EE800A10EE101A08460BF0E1F8CDE987
:1018C000040118EE100A0BF0DBF841EC1C0B9FED45
:1018D000A30B05F025FCB0EE40FAF0EE60FA9FEDA8
:1018E000A10B53EC102B51EC1F0B0AF0E5FB41EC64
:1018F0001D0B0AF0E7FA41EC1E0B53EC1C2B0AF00F
:10190000C9FDCDE902019DED040B53EC102B9DEDBB
:10191000020B51EC100B0AF0C9FF53EC1B2BCDE965
:1019200006019DED060B51EC100B0AF009FB41EC92
:101930001A0B0AF0D3FA85498860874890ED000AAF
:1019400020EE280A10EE101A08460BF099F841EC28
:101950001B0BB6EE000A29EE800A10EE101A08469C
:101960000BF08EF841EC1C0B18EE100A0BF088F807
:1019700041EC1D0B00E05BE09FED780B05F0D0FB28
:101980008DED040B9FED770B53EC102B9DED040BAD
:1019900051EC100B0AF090FB53EC1D2BCDE9060126
:1019A0009DED060B51EC100B0AF074FD41EC1F0B82
:1019B00053EC1C2B0AF07AFF41EC1E0B53EC1B2B53
:1019C0000AF0BEFA41EC1A0B0AF088FA6049886006
:1019D0005D48D0ED020AB0EE600AB0EE491AF1EEB1
:1019E000490A08F055FE584880ED020A5748D0EDE4
:1019F000020AB0EE600AB0EE491AF1EE490A08F0A8
:101A000047FE524880ED020A5148D0ED020AB0EE7E
:101A1000600AB0EE491AF1EE490A08F039FE4C4866
:101A200080ED020A9FED510A4A4880ED020A5BE20E
:101A30004148007802287DD19FED4D0AF0EE40DA52
:101A4000B0EE68AA3F4890ED000AF6EE000A20EEDC
:101A5000200A10EE101A08460BF012F841EC1B0B8E
:101A60001AEE100A0BF00CF8CDE904019DED040B01
:101A700005F096FBB0EE40EAF0EE60EA3048006810
:101A80000AF0FEFF41EC1F0B53EC1E2B0AF014FB77
:101A900041EC1C0B53EC1B2B0AF008FFCDE90601AF
:101AA0009DED060B51EC100B0AF018FA0AEE900AA5
:101AB0009FED301ADFED300AB0EE4A0A08F0E8FD7B
:101AC000B0EE40AAB5EEC0AAF1EE10FA20D01D4843
:101AD000D0ED000AB6EE001AB0EE6A0A01EE600A16
:101AE00020EE080AC0EE2A0A1748C0ED020A15487F
:101AF000D0ED000AB6EE001AB0EE6A0A01EE200A36
:101B000020EE080AC0EE2A0A1048C0ED020A05E0DD
:101B10000D4880ED028A0D4880ED028A9FED170A7C
:101B20002AEE000A10EE101A08460AF0A9FF41EC4E
:101B30001E0B25E0C0E00000D00100203CA70020E3
:101B4000400200203C02002048A700205CA70020A3
:101B500070A7002084A7002044020020000000009D
:101B600000000840000000000000004000000000ED
:101B7000D7231F440AD7A33E48E1FABEE5D0E23F8F
:101B80001AEE100A0AF07CFF41EC1C0B1FED0B1B38
:101B9000B0EE4C0AF0EE6C0A04F09AFCB0EE40BADB
:101BA000F0EE60BA9FEDD20B53EC102B51EC1B0BF7
:101BB0000AF070FCCDE902011AEE100A0AF060FF8B
:101BC00041EC1B0B1FED1B1BB0EE4B0AF0EE6B0A3A
:101BD00004F07EFCB0EE40CAF0EE60CA9FEDC60B8A
:101BE00053EC102B51EC1C0B0AF054FCCDE9000116
:101BF0009DED020B53EC102B9DED000B51EC100BE7
:101C00000AF09EF941EC1F0B53EC1E2B0AF04EFE1E
:101C10009FEDBB0B53EC102BCDE904019DED040BA4
:101C200051EC100B0AF08CF9CDE906019DED060B85
:101C300051EC100B0AF052F90DEE100A9FEDB20AAA
:101C40007DEE400A9FEDB10A00EEAD0ABDEEC00A7E
:101C5000AF4880ED000AAF48D0ED020AB0EE600A4E
:101C6000B0EE491AF1EE490A08F012FDA94880EDDC
:101C7000020AA948D0ED020AB0EE600AB0EE491A95
:101C8000F1EE490A08F004FDA34880ED020A1FEDB9
:101C9000490AA24880ED020A1FED4C0AA04880EDD7
:101CA000020A40F698024FF448719948006808F01B
:101CB00004FD9749086017E19A480078032842D14B
:101CC000994890ED000A68EE800AB0EE001A80EEA6
:101CD000810A38EE400A8F4880ED020A924890ED62
:101CE000000A68EE800AB0EE001A80EE810A30EE3B
:101CF000080A894880ED020A8648D0ED020AB0EE53
:101D0000600AB0EE491AF1EE490A08F0C1FC8148B8
:101D100080ED020A8048D0ED020AB0EE600AB0EE13
:101D2000491AF1EE490A08F0B3FC7B4880ED020A3B
:101D30001FED720A794880ED020A1FED740A784897
:101D400080ED020AD0E07748007804287DD17648FB
:101D500090ED000A7548D0ED000A30EE200A60EEE2
:101D6000280AB0EE001A80EE810A38EE400A69486F
:101D700080ED020A6C4890ED000A6C48D0ED000A34
:101D800030EE200A60EE280AB0EE001A80EE810ADA
:101D900038EE400A604880ED020A634890ED000A80
:101DA0006248D0ED000A30EE200A60EE280AB0EE5C
:101DB000001A80EE810A30EE080A584880ED020AC7
:101DC000594890ED000A5948D0ED000A30EE200A3B
:101DD00060EE280AB0EE001A80EE810A30EE080AA2
:101DE0004F4880ED020A4B48D0ED020AB0EE600A7F
:101DF000B0EE491AF1EE490A08F04AFC454880ED78
:101E0000020A4548D0ED020AB0EE600AB0EE491A67
:101E1000F1EE490A08F03CFC3F4880ED020A3F48D9
:101E2000D0ED020AB0EE600AB0EE491AF1EE490AAE
:101E300008F02EFC394880ED020A3948D0ED020A3C
:101E4000B0EE600AB0EE491A00E007E0F1EE490A90
:101E500008F01EFC324880ED020A45E03148007867
:101E6000052841D1304890ED000A68EE800AB0EEB6
:101E7000001A80EE810A38EE400A264880ED020AF8
:101E8000294890ED000A68EE800AB0EE001A80EE54
:101E9000810A30EE080A204880ED020A1D48D0ED84
:101EA000020AB0EE600AB0EE491AF1EE490A08F0F3
:101EB000EFFB184880ED020A1748D0ED020AB0EE99
:101EC000600AB0EE491AF1EE490A08F0E1FB124847
:101ED00080ED020A1FEDDB0A104880ED020A1FEDBB
:101EE000DD0A0F4880ED020A09B0BDEC108B00BD81
:101EF00000000000D34DF43F000000809318E4BFC1
:101F0000000000E07A14FC3FD7A3E03F0080BB4410
:101F1000D401002048A700205CA7002070A7002063
:101F200084A70020D00100203C02002040020020B5
:101F30001CB50121082002F079FE08200090002045
:101F40008DF8040003208DF8050001208DF80700AE
:101F50006946024800F080FB1CBD0000000C0240F6
:101F600000B589B00121084602F080FE012103205E
:101F700002F05CFE4FF40040019003208DF8090050
:101F800002208DF8080001208DF80A008DF80B0062
:101F900001A92B4800F060FB0820019003208DF878
:101FA000090002208DF8080001208DF80A008DF844
:101FB0000B0001A9234800F04FFB01220F2120480C
:101FC00000F092FB012203211E4800F08DFB06A8C1
:101FD00003F006FE0020ADF818004FF6FF700790E2
:101FE0000020ADF82000ADF81A0006A94FF080409F
:101FF00003F0B4FD00231A4603214FF0804003F0A4
:10200000C9FB03A803F01EFC0020ADF8140003A9CF
:102010004FF0804003F0DFFB0121880703F09CFBB9
:1020200001221146900703F016FC00214FF080407A
:1020300003F065FD0121880703F091FB09B000BDA5
:10204000000002400004024000B589B001210220D6
:1020500002F00CFE0121022002F0E8FD3020019088
:1020600003208DF8090002208DF8080001208DF86A
:102070000A008DF80B0001A9204800F0EDFA0222B9
:1020800004211E4800F030FB022205211B4800F00D
:102090002BFB06A803F0A4FD0020ADF818004FF6B6
:1020A000FF7007900020ADF82000ADF81A0006A9D7
:1020B000134803F053FD00231A460321104803F090
:1020C00069FB03A803F0BEFB0020ADF8140003A9D0
:1020D0000B4803F080FB0121094803F03DFB01227E
:1020E0001146074803F0B7FB0021054803F007FD40
:1020F0000121034803F033FB09B000BD0004024096
:102100000004004000B589B00121042002F0AEFDBA
:102110000121022002F08AFDC020019003208DF8E9
:10212000090002208DF8080001208DF80A008DF8C2
:102130000B0001A9204800F08FFA022206211E4858
:1021400000F0D2FA022207211B4800F0CDFA06A8BF
:1021500003F046FD0020ADF818004FF6FF70079021
:102160000020ADF82000ADF81A0006A9134803F0CE
:10217000F5FC00231A460321104803F00BFB03A8CB
:1021800003F060FB0020ADF8140003A90B4803F036
:1021900022FB0121094803F0DFFA0122114607481A
:1021A00003F059FB0021054803F0A9FC0121034875
:1021B00003F0D5FA09B000BD000402400008004059
:1021C00000B589B00121082002F050FD0121084628
:1021D00002F02CFD032001908DF8090002208DF8FB
:1021E000080001208DF80A008DF80B0001A9214894
:1021F00000F032FA022200211E4800F075FA022295
:1022000001211C4800F070FA06A803F0E9FC002048
:10221000ADF818004FF6FF7007900020ADF82000D1
:10222000ADF81A0006A9144803F098FC00231A46DA
:102230000321114803F0AEFA03A803F003FB0020CA
:10224000ADF8140003A90C4803F0C5FA01210A48AF
:1022500003F082FA01221146074803F0FCFA00213C
:10226000054803F04CFC0121034803F078FA09B05B
:1022700000BD000000000240000C004010B5844882
:1022800000888449088005208349088014E080483C
:102290008149098830F811007E490988884206DBA7
:1022A0007B487D49098830F811007A4908807A48CE
:1022B0000088401C78490880774800887B28E6DB46
:1022C000734800887549088005207349088014E028
:1022D0006F487149098830F81100704909888842AF
:1022E00006DC6B486C49098830F811006B4908809E
:1022F00069480088401C68490880674800887B2836
:10230000E6DB64490988654A1288881800EBD071B9
:10231000C1F34F01624A118005205F49088045E002
:102320005B485D49098830F811005D490988884299
:1023300037DD574958480088401C31F8100058498B
:10234000098888422DDD524953480088801C31F8A5
:10235000100053490988884223DD4D494E480088C2
:10236000C01C31F810004E490988884219DA4849E2
:1023700049480088001D31F8100049490988884201
:102380000FDA434944480088401D31F810004449A1
:102390000988884205DA40480088801C4149088045
:1023A00008E03D480088401C3B4908803A480088C6
:1023B0007628B5DB00BF76203B49088045E03448ED
:1023C0003949098830F8110035490988884237DAD7
:1023D0002F4935480088401C31F8100030490988E1
:1023E00088422DDA2A4930480088801C31F81000D4
:1023F0002B490988884223DA25492B480088C01CCC
:1024000031F8100026490988884219DD20492648FC
:102410000088001D31F810002149098888420FDD2D
:102420001B4921480088401D31F810001C490988CB
:10243000884205DD1C480088801C1C49088008E093
:1024400019480088401E1849088017480088052848
:10245000B5DC00BF15490988124A1288881800EBBC
:10246000D071C1F34F01124A118011460988114AF7
:102470001288881A05F07AFE5A2803D90D48008878
:102480000B4908800A4800880A49088010BD0000EE
:10249000EC020020460000203C0000204800002004
:1024A00026000020400000203E00002042000020C6
:1024B000240000204400002010B52DED028BB0EE6A
:1024C000408AF0EE608A38EEC80A534880ED000A70
:1024D000524890ED000A5048D0ED000A30EE200A34
:1024E0004E4880ED000A90ED000ADFED4D0AB4EE93
:1024F000E00AF1EE10FA04DD9FED490A80ED000AD2
:102500000DE0464890ED000ADFED460AB4EEE00A21
:10251000F1EE10FA03D29FED430A80ED000A424823
:102520000078022803D04048007801282CD13F4889
:10253000D0ED000A9FED3E1A80EE810A3648D0EDBC
:10254000000A20EE200A3B4890ED001ADFED381A11
:10255000C1EE210A314890ED001A00EE810A36489A
:1025600090ED001ADFED321AC1EE210A2A4890EDF3
:10257000001A3248D0ED001A31EE611A00EE810ADD
:102580002F4880ED000A2BE02E4890ED000ADFED89
:10259000280A80EE201A204890ED000A21EE000A59
:1025A000294890ED001ADFED221AC1EE210A1B48DE
:1025B00090ED001A00EE810A244890ED001ADFED3C
:1025C0001C1AC1EE210A144890ED001A1B48D0EDE8
:1025D000001A31EE611A00EE810A194880ED000AF6
:1025E0000D4890ED000A154880ED000A184890ED5E
:1025F000000ABDEEC00A10EE100A03F0FBFA012833
:1026000004D19FED140A054880ED000A0C4890EDB6
:10261000000ABDEC028B10BDF80000200001002074
:1026200000007A4400007AC4D0010020BC000020E1
:102630000000C842C4000020C000002004010020A7
:10264000FC000020B0000020B8000020B4000020F2
:102650001800002000000000F0B50A460021002309
:10266000002400BF3DE0012505FA01F3156805EAE5
:1026700003049C4234D105684F000326BE40B54395
:10268000056015794E00B54006683543056015793B
:10269000012D02D01579022D16D185684F00032631
:1026A000BE40B543856055794E00B54086683543D8
:1026B0008560456801268E40B5434560456896793A
:1026C0008E40B6B235434560C5684F000326BE4014
:1026D000B543C560D5794E00B540C6683543C56081
:1026E000491C1029BFD3F0BDF0B5002300244D07CD
:1026F000ED0E02FA05F3CE1000F1200555F8265034
:102700004E07F70E0F26BE40B543CF1000F120064E
:1027100046F82750CE1000F1200555F8265045EA1E
:102720000304CE1000F1200545F82640F0BD41839A
:10273000704701837047000010B50446072301224B
:1027400021460848FEF70EF90648FEF767F900BF74
:1027500002210448FEF7D3F80028F9D00148FEF71B
:10276000CAF810BD0020014010B50124D9480078F6
:1027700018B1D8480078012874D1D74800780928C2
:1027800071D2DFE800F07F051222314352627100FE
:10279000D24890ED000AD24880ED000A9FEDD10AA0
:1027A000D14880ED000A012478E0CC4890ED000A81
:1027B000CB4880ED000AC94890ED000AB1EE400A0E
:1027C000C94880ED000A012468E09FEDC60AC448AC
:1027D00080ED000AC14890ED000AB1EE400AC248FF
:1027E00080ED000A012459E0BC4890ED000AB1EEEA
:1027F000400ABB4880ED000AB84890ED000AB1EEEF
:10280000400AB94880ED000A012447E0B34890ED42
:10281000000AB1EE400AB24880ED000A9FEDB10A0D
:10282000B14880ED000A012438E0AC4890ED000A80
:10283000B1EE400AAA4880ED000AA84890ED000ACF
:10284000A94880ED000A012428E09FEDA60AA448CB
:1028500080ED000AA14890ED000AA34880ED000A2F
:1028600001241BE049E00DE09C4890ED000A9C48E3
:1028700080ED000A994890ED000A9B4880ED000A1F
:1028800001240BE09FED970A954880ED000A9FED2B
:10289000950A954880ED000A002400BF00BF002C77
:1028A00011D19248007801280ED18C4890ED000A91
:1028B000DFED8F0A80EE201A9FED8E0A21EE000ACE
:1028C0008D4880ED000AA6E08C48007801280ED1E2
:1028D000824890ED000ADFED860A80EE201A9FED17
:1028E000880A21EE000A844880ED000A93E09FEDFB
:1028F0007D0A814880ED000A8DE07748007809283C
:102900006AD2DFE800F06905111D283644525D00E7
:10291000724890ED000A724880ED000A9FED710A3E
:10292000754880ED000A62E06C4890ED000A6C4842
:1029300080ED000A9FED720A6F4880ED000A56E0B4
:102940009FED680A664880ED000A9FED6D0A6A48AF
:1029500080ED000A4BE0614890ED000AB1EE400ABC
:102960005F4880ED000A9FED660A634880ED000A2B
:102970003DE05A4890ED000AB1EE400A584880ED1B
:10298000000A9FED580A5C4880ED000A2FE053488A
:1029900090ED000AB1EE400A514880ED000A9FED2B
:1029A000550A554880ED000A21E09FED4E0A4C483B
:1029B00080ED000A9FED4F0A4F4880ED000A16E0B7
:1029C000464890ED000A464880ED000A9FED490A0E
:1029D000494880ED000A0AE09FED420A404880ED38
:1029E000000A9FED400A444880ED000A00BF00BF86
:1029F0003E480078012805D19FED3E0A3E4880ED13
:102A0000000A08E03D480078012804D19FED3C0A07
:102A1000394880ED000A2F48007802280DD1364849
:102A200090ED000AF0EE000A20EE200AF2EE020A13
:102A300080EE201A80ED001A29E02648007803284D
:102A400007D024480078052803D0224800780428BD
:102A50001DD1234890ED000AB5EEC00AF1EE10FA40
:102A600006D2254890ED000AB1EE400A80ED000A3A
:102A7000214890ED000A1948D0ED000A20EE200A06
:102A8000DFED1B0A80EE201A1B4880ED001A144867
:102A900090ED000ADFED1B0A80EE201A80ED001A8F
:102AA000114890ED000ADFED170A80EE201A80ED44
:102AB000001A114890ED000A80ED000A90ED001A0E
:102AC0000948D0ED000A064890ED000AFEF72CFEFA
:102AD00010BD0000D001002051020020D8010020CC
:102AE0002002002000000000240200204F020020ED
:102AF0000000FA43DB0FC93F2802002050020020EB
:102B0000DB0FC9BF00007A4410B52DED028B9FED9D
:102B1000920AB0EE408A914890ED000A904880ED0C
:102B2000000A90480088403800EE100AB8EEC00A4B
:102B30008D4880ED000A8D480078012821D18A480F
:102B400090ED000AB1EE400A8948D0ED000A20EE6F
:102B5000200ADFED880A20EE200A8348D0ED000A23
:102B6000854890ED001A70EEC10A844890ED001A75
:102B700060EE810A9FED7F1A00EEC10AB0EE408A36
:102B800046E07A480078052821D1774890ED000A80
:102B9000B1EE400A7A48D0ED000A20EE200ADFEDBF
:102BA000750A20EE200A7048D0ED000A724890EDB8
:102BB000001A70EEC10A734890ED001A60EE810AA7
:102BC0009FED6C1A00EEC10AB0EE408A20E0664824
:102BD00090ED000AB1EE400A6B48D0ED000A20EEFD
:102BE000200ADFED640A20EE200A5F48D0ED000ADB
:102BF000614890ED001A70EEC10A644890ED001A29
:102C000060EE810A9FED5B1A00EEC10AB0EE408AC9
:102C1000554890ED000A584880ED000A5348007866
:102C200060B94E4890ED000A28EE000ADFED580A20
:102C300080EE201A574880ED001A72E04B48007869
:102C400001280CD1454890ED000A28EE000ADFED7E
:102C5000520A80EE201A4F4880ED001A61E0434886
:102C60000078022807D19FED4D0AC8EE000A4948B6
:102C7000C0ED000A55E03D480078032818D13848D7
:102C800090ED000AB5EEC00AF1EE10FA03D2B1EEF3
:102C9000480AB0EE408A314890ED000A28EE000A5A
:102CA000DFED3F0A80EE201A3A4880ED001A38E046
:102CB0002E480078052818D1294890ED000AB5EE75
:102CC000C00AF1EE10FA03D2B1EE480AB0EE408A23
:102CD000224890ED000A28EE000ADFED2D0A80EE72
:102CE000201A2C4880ED001A1BE0204800780428A8
:102CF00017D11B4890ED000AB5EEC00AF1EE10FAAC
:102D000003D2B1EE480AB0EE408A144890ED000AB2
:102D100028EE000ADFED230A80EE201A1D4880ED20
:102D2000001A0F4890ED000ADFED1F0A80EE201A0E
:102D300080ED001A174890ED000A80ED000A90ED32
:102D4000001A1A48D0ED000A054890ED000AFEF777
:102D5000EBFCBDEC028B10BD000000005C0200200B
:102D60002002002024000020A8020020D001002022
:102D7000EC010020CDCCCC3DAC020020F0010020C5
:102D8000DC010020E0010020FC0100200002002006
:102D900000504347280200200010A4460000E143F1
:102DA00000DC824700089D4600007A44240200208F
:102DB00010B52DED028B9FEDA10AB0EE408AFEF713
:102DC000D5FB00287ED19E4890ED000A9D4880EDFD
:102DD000000A9D480068C0F1640000EE100AB8EED9
:102DE000C00A9A4880ED000A99480078012821D14C
:102DF000964890ED000AB1EE400A9648D0ED000AE0
:102E000020EE200ADFED940A20EE200A8F48D0ED54
:102E1000000A924890ED001A70EEC10A904890EDB9
:102E2000001A60EE810A9FED8F1A00EEC10AB0EE23
:102E3000408A46E086480078052821D1834890EDF5
:102E4000000AB1EE400A8848D0ED000A20EE200AC0
:102E5000DFED860A20EE200A7C48D0ED000A7F488C
:102E600090ED001A70EEC10A814890ED001A60EEF4
:102E7000810A9FED7E1A00EEC10AB0EE408A20E082
:102E8000724890ED000AB1EE400A7A48D0ED000A8F
:102E900020EE200ADFED700A20EE200A6B48D0ED0C
:102EA000000A6E4890ED001A70EEC10A724890ED6B
:102EB000001A60EE810A9FED6B1A00EEC10AB0EEB7
:102EC000408A00E08CE0614890ED000A634880EDA4
:102ED000000A0020FEF712FB5D48007860B95848F0
:102EE00090ED000A28EE000ADFED640A80EE201A59
:102EF000634880ED001A80E05548007801280CD125
:102F00004F4890ED000A28EE000ADFED5E0A80EEE1
:102F1000201A5B4880ED001A6FE04D4800780328C6
:102F200018D1484890ED000AB5EEC00AF1EE10FA4B
:102F300003D2B1EE480AB0EE408A414890ED000A53
:102F400028EE000ADFED500A80EE201A4C4880ED92
:102F5000001A52E03E480078052818D1394890ED13
:102F6000000AB5EEC00AF1EE10FA03D2B1EE480A3B
:102F7000B0EE408A324890ED000A28EE000ADFEDFC
:102F8000430A80EE201A3E4880ED001A35E03048B2
:102F90000078042818D12B4890ED000AB5EEC00A3D
:102FA000F1EE10FA03D2B1EE480AB0EE408A24489E
:102FB00090ED000A28EE000ADFED350A80EE201AB7
:102FC0002F4880ED001A18E021480078022814D11B
:102FD0009FED300AC8EE000A2948C0ED000A0CE057
:102FE0006420FEF78BFA9FED150A164880ED000A63
:102FF0009FED120A224880ED000A124890ED000A67
:10300000DFED250A80EE201A80ED001A1C4890EDB5
:10301000000A80ED000A9FED090A204880ED000AB1
:10302000174890ED001A1D48D0ED000A054890EDB4
:10303000000AFEF779FBBDEC028B10BD000000001A
:10304000600200202002002034000020B002002096
:10305000D0010020F40100200AD7A33DB4020020D3
:10306000F8010020CDCC4C3DE4010020CDCCCC3D7E
:10307000E80100200402002008020020005043471D
:103080002802002000C0284600C82F4700C0DA46AA
:1030900000089D460000E14300007A44240200201D
:1030A00010B501243B48007818B13A48007801284F
:1030B0004DD13948407800EE100AB8EE400ADFEDF5
:1030C000370A20EE200A364880ED000A32480078A0
:1030D000012808D1324890ED000AFFEE000A20EEE8
:1030E000200A80ED000A2C48C07800EE100AB8EEE5
:1030F000400ADFED2A0A20EE200A2A4880ED000A65
:1031000025488078012808D1264890ED000AFFEE76
:10311000000A20EE200A80ED000A1F48407900EEE8
:10312000100AB8EE400AF7EE000A20EE200A1E4808
:1031300080ED000A18480079012808D11A4890ED5E
:10314000000AFFEE000A20EE200A80ED000A144873
:1031500090ED000ADFED150A80EE201A80ED001ACE
:10316000104890ED000ADFED110A80EE201A80ED84
:10317000001A0D4890ED000A80ED000A90ED001A4B
:103180000848D0ED000A064890ED000AFEF7CCFA98
:1031900010BD0000D0010020C80000200000C8427F
:1031A00020020020240200202802002000007A448F
:1031B00010B52DED048B022001F080FE74490860EB
:1031C000032001F07BFE72494860042001F076FE86
:1031D0006F498860052001F071FE6D49C8606D4837
:1031E000007806281AD2DFE800F0031A354A5F7625
:1031F000674890ED000AB8EEC08A90ED010AF8EE3B
:10320000C08A8068404200EE100AB8EEC09A60485A
:10321000C068404200EE100AF8EEC09A70E05C48C8
:103220000068404200EE100AB8EEC08A5848406874
:10323000404200EE100AF8EEC08A554880684042CD
:1032400000EE100AB8EEC09A514890ED030AF8EE6D
:10325000C09A55E04E4890ED000AB8EEC08A40682A
:10326000404200EE100AF8EEC08A494890ED020A8A
:10327000B8EEC09A90ED030AF8EEC09A40E04448D8
:1032800090ED000AB8EEC08A4068404200EE100A95
:10329000F8EEC08A3E4890ED020AB8EEC09A90ED72
:1032A000030AF8EEC09A2BE0394890ED000AB8EE18
:1032B000C08A90ED010AF8EEC08A8068404200EEB4
:1032C000100AB8EEC09A3248C068404200EE100AB8
:1032D000F8EEC09A14E02E4890ED000AB8EEC08ACD
:1032E0004068404200EE100AF8EEC08A284890ED8F
:1032F000020AB8EEC09A90ED030AF8EEC09A00BF39
:1033000000BF9FED250A28EE000A2448D0ED000AF0
:1033100020EE200A2248D0ED000A80EE201A214833
:1033200080ED001A9FED1C0A28EE800A1B48D0EDA4
:10333000000A20EE200A1A48D0ED000A80EE201A7A
:10334000194880ED001A9FED140A29EE000A13486F
:10335000D0ED000A20EE200A1148D0ED000A80EEE0
:10336000201A124880ED001A9FED0B0A29EE800A00
:103370000A48D0ED000A20EE200A0948D0ED000AE4
:1033800080EE201A0A4880ED001ABDEC048B10BDB7
:1033900098A70020D00100200000C8423802002079
:1033A0003402002048A700205CA7002070A700205E
:1033B00084A700202DE9F04107460C460025002691
:1033C00008E03846FFF7B8F90544052004F0DCFDB5
:1033D000701CC6B2A642F4DBB5FBF4F080B2BDE8C7
:1033E000F081000010B52DED0E8B0820FFF7A4F939
:1033F000044608F0FFFF41EC1E0B9FED180B53EC49
:10340000102B09F047F841EC1D0B9FED160B53EC08
:10341000102B09F03FF841EC1C0B9FED140B53EC03
:10342000102B09F037F841EC1B0B9FED120B53ECFE
:10343000102B08F041FE41EC1A0B9FED100B53ECE2
:10344000102B08F039FE41EC190B08F047FD08EE8F
:10345000100AB0EE480ABDEC0E8B10BD66666666BB
:1034600066660A40000000000000264000000040A0
:10347000E17AF03F000000000000F03F0000000093
:103480000000B04000BFFEE730EEC01A234880EDD8
:10349000001A90ED001A2248D0ED001A31EE611AA0
:1034A0002048D0ED001A21EE211A1F48D0ED001A55
:1034B0001A4890ED002A01EE821A1C48D0ED001A3D
:1034C00031EE211A80ED001A90ED001ADFED181A86
:1034D000B4EEE11AF1EE10FA03DD9FED151A80ED5E
:1034E000001A124890ED001ADFED121AB4EEE11A3C
:1034F000F1EE10FA03D29FED0F1A80ED001A074883
:1035000090ED001A064880ED001A084890ED001A68
:10351000BDEEC11A11EE100A7047000070020020C3
:10352000780200202C0200203002002074020020CB
:1035300000408346004083C630EEC01A234880ED29
:10354000001A90ED001A2248D0ED001A31EE611AEF
:103550002048D0ED001A21EE211A1F48D0ED001AA4
:103560001A4890ED002A01EE821A1C48D0ED001A8C
:1035700031EE211A80ED001A90ED001ADFED181AD5
:10358000B4EEE11AF1EE10FA03DD9FED151A80EDAD
:10359000001A124890ED001ADFED121AB4EEE11A8B
:1035A000F1EE10FA03D29FED0F1A80ED001A0748D2
:1035B00090ED001A064880ED001A084890ED001AB8
:1035C000BDEEC11A11EE100A704700007C02002007
:1035D000840200202C020020300200208002002003
:1035E00000408346004083C630EEC01A234880ED79
:1035F000001A90ED001A2248D0ED001A31EE611A3F
:103600002048D0ED001A21EE211A1F48D0ED001AF3
:103610001A4890ED002A01EE821A1C48D0ED001ADB
:1036200031EE211A80ED001A90ED001ADFED181A24
:10363000B4EEE11AF1EE10FA03DD9FED151A80EDFC
:10364000001A124890ED001ADFED121AB4EEE11ADA
:10365000F1EE10FA03D29FED0F1A80ED001A074821
:1036600090ED001A064880ED001A084890ED001A07
:10367000BDEEC11A11EE100A70470000880200204A
:10368000900200202C020020300200208C0200203A
:1036900000408346004083C630EEC01A234880EDC8
:1036A000001A90ED001A2248D0ED001A31EE611A8E
:1036B0002048D0ED001A21EE211A1F48D0ED001A43
:1036C0001A4890ED002A01EE821A1C48D0ED001A2B
:1036D00031EE211A80ED001A90ED001ADFED181A74
:1036E000B4EEE11AF1EE10FA03DD9FED151A80ED4C
:1036F000001A124890ED001ADFED121AB4EEE11A2A
:10370000F1EE10FA03D29FED0F1A80ED001A074870
:1037100090ED001A064880ED001A084890ED001A56
:10372000BDEEC11A11EE100A70470000940200208D
:103730009C0200202C020020300200209802002071
:1037400000408346004083C61CB50121102001F0D3
:103750006DFA0120009000208DF8040003208DF800
:10376000050001208DF8070069460248FEF774FF46
:103770001CBD0000001002401CB50121084601F0EC
:1037800055FA4FF48050009001208DF8040000207D
:103790008DF8060003208DF8050001208DF8070044
:1037A00069460448FEF758FF4FF480510148FEF780
:1037B000C0FF1CBD0000024000B587B0334802F0D6
:1037C00033FD01210C2001F031FA0121080501F03F
:1037D0004DFA08220C212E48FEF786FF082202210E
:1037E0002C48FEF781FF4FF48050059002208DF8A1
:1037F000180000208DF81A0002208DF81900012011
:103800008DF81B0005A92248FEF726FF042005902D
:1038100002208DF8180000208DF81A0002208DF883
:10382000190001208DF81B0005A91A48FEF714FFA6
:1038300035208DF8100001208DF8110000208DF842
:10384000120001208DF8130004A800F0EDFB4FF4E6
:10385000E13000900020ADF80400ADF80600ADF8AE
:103860000800ADF80C000C20ADF80A0069460748C6
:1038700002F0A2FD012240F22551044802F076FD3B
:103880000121024802F0C4FC07B000BD0050004016
:1038900000080240000C024070B500264FF6FF758C
:1038A00000241BE0904830F83400002815DD8E48D5
:1038B00030F83400B0F5C86F0FDA761C8A4830F85B
:1038C0003400A84209DA884830F8345000EBC400CC
:1038D00090ED010A854880ED000A641CB4F5906FF4
:1038E000E0DB824890ED000ADFED810AB4EEE00AE9
:1038F000F1EE10FA07DD90ED000ADFED7E0A30EE02
:10390000600A80ED000A794890ED000A7A48D0ED0F
:10391000000A30EE600AF2EE040AB4EEE00AF1EEBC
:1039200010FA0EDC714890ED000A7348D0ED000AE1
:1039300030EE600AFAEE040AB4EEE00AF1EE10FA94
:1039400010D26E480078401CC0B26C4908701E2826
:1039500018DD00200870654890ED000A664880ED8B
:10396000000A0FE065480078401CC0B26349087047
:103970000A2807DD002008705C4890ED000A5E48C8
:1039800080ED000A082E17DA5D480088282804DA3E
:103990005B480088401C5A490880594800882828FC
:1039A00009DB9FED580A584880ED000A9FED550A43
:1039B000564880ED000A8AE00020514908805248AC
:1039C00090ED000ADFED520AB4EEE00AF1EE10FAD3
:1039D00008DC90ED000ADFED4F0AB4EEE00AF1EEEC
:1039E00010FA2DD2B5F52F7F1DDA434890ED000A6D
:1039F000DFED490AB4EEE00AF1EE10FA08DC90EDD2
:103A0000000ADFED460AB4EEE00AF1EE10FA0AD23F
:103A1000394890ED000ADFED420A20EE200A3B48CB
:103A200080ED000A11E0DFED370A334890ED000A1F
:103A3000FEF742FDB1EE400A344880ED000A04E092
:103A40009FED300A314880ED000A284890ED000AC9
:103A5000DFED340AB4EEE00AF1EE10FA08DC90ED86
:103A6000000ADFED310AB4EEE00AF1EE10FA17D2E7
:103A7000DFED2E0A00EE105AB8EE400AFDF7B6FD53
:103A8000B1EE400A204880ED000A1B4890ED000A84
:103A9000DFED230A20EE200A1C4880ED000A0AE030
:103AA000DFED220A00EE105AB8EE400AFDF79EFD47
:103AB000154880ED000A9FED1E1ADFED1E0A124820
:103AC00090ED000A06F0E4FD0F4880ED000A0F4873
:103AD00090ED001A1848D0ED000A0B4890ED000A4E
:103AE000FDF722FE70BD0000642E0020BC02002005
:103AF000000034430000B443C0020020C402002090
:103B0000B80200200000000020020020280200204F
:103B10008FC2753D8FC275BD00007042000070C23B
:103B20002E9020BC00001643000016C30000FA438C
:103B30009A99193F9A9919BF2402002070B500265E
:103B40009FED450A454880ED000A002432E04448D4
:103B500000EBC40090ED010ADFED420AB4EEE00A8A
:103B6000F1EE10FA25DD3E4800EBC40090ED010AAD
:103B7000DFED3D0AB4EEE00AF1EE10FA19D23B484F
:103B8000006848B9364830F8340039490860374889
:103B90000068401C35490860314830F8341034481A
:103BA00000686430814204D2701CC6B22C4830F8E0
:103BB0003450641CB4F5906FC9DB2E48007818B1FE
:103BC0002C480078012818D1294890ED000AF8EE19
:103BD000400A00EE105AB8EE400AFDF745F92648B3
:103BE00080ED000A9FED1C0A1C4880ED000A9FED45
:103BF000230A234880ED000A17E01D4890ED000AD3
:103C0000F8EE400A00EE105AB8EE400AFDF72CF923
:103C10001B4880ED000A9FED100A104880ED000A55
:103C20009FED160A144880ED000A4EB99FED130A65
:103C3000114880ED000A9FED110A114880ED000A3D
:103C40000F4890ED001A0C48D0ED000A034890EDA3
:103C5000000AFDF769FD70BD9A99993E2002002087
:103C6000642E00200000864300008843CC02002020
:103C7000C8020020D0010020240200200000000023
:103C80002802002000B52649D1ED010AB0EE600AF5
:103C900000EE900AB8EEE01A414200EE901AF8EEFB
:103CA000E00A06F0F5FC1E4981ED010A1D49D1ED3F
:103CB000010AB0EE600A00EE900AB8EEE01A414246
:103CC00000EE901AF8EEE00A06F0E2FC154981EDEC
:103CD000010A1549D1ED010AB0EE600A00EE900A22
:103CE000B8EEE01A414200EE901AF8EEE00A06F053
:103CF000CFFC0D4981ED010A0C49D1ED010AB0EE6E
:103D0000600A00EE900AB8EEE01A414200EE901A06
:103D1000F8EEE00A06F0BCFC044981ED010A00BDA2
:103D200048A700205CA7002070A7002084A70020DF
:103D300000BFFEE730B58BB005460C460121880474
:103D400000F0B4FF0121022000F070FF03220921DE
:103D50001E48FEF7C9FC4FF40070099002208DF850
:103D6000280003208DF8290000208DF82A0001206A
:103D70008DF82B0009A91548FEF76EFC0795ADF8E4
:103D800018400120ADF820000020ADF81A0006A967
:103D90000F4801F0E3FE6020ADF804000120ADF80B
:103DA00006000020ADF8100001A9094801F05CFDF3
:103DB0000821074801F096FD0121054801F0C0FCEB
:103DC0000121034801F0CBFC0BB030BD00040240E0
:103DD0000048014030B58BB005460C46012108462D
:103DE00000F064FF0121102000F020FF01220921D2
:103DF0003448FEF779FC01220B213248FEF774FCAF
:103E000001220D212F48FEF76FFC01220E212D48C3
:103E1000FEF76AFC4FF4D440099002208DF8280088
:103E200003208DF8290000208DF82A0001208DF84C
:103E30002B0009A92348FEF70FFC0795ADF81840A1
:103E40000120ADF820000020ADF81A0006A91E4898
:103E500001F084FE6020ADF804000120ADF80600FA
:103E60000020ADF8100001A9174801F0FDFC01A9E0
:103E7000154801F041FD01A9134801F09DFD01A97C
:103E8000114801F0F3FD08210F4801F02BFD082136
:103E90000D4801F083FD08210B4801F0DDFD0821EC
:103EA000094801F01FFE0121074801F064FC0121CF
:103EB000054801F045FC0121034801F050FC0BB01E
:103EC00030BD0000001002400000014030B58BB052
:103ED00005460C460121080400F0E8FE01211020EF
:103EE00000F0A4FE032205212448FEF7FDFB032277
:103EF00006212248FEF7F8FB6020099002208DF889
:103F0000280003208DF8290000208DF82A000120C8
:103F10008DF82B0009A91948FEF79EFB0795ADF80F
:103F200018400120ADF820000020ADF81A0006A9C5
:103F3000134801F013FE6020ADF804000120ADF835
:103F400006000020ADF8100001A90D4801F08CFC1E
:103F500001A90B4801F0D0FC0821094801F0C2FC7E
:103F60000821074801F01AFD0121054801F0E8FB8E
:103F70000121034801F0F3FB0BB030BD00100240FB
:103F80000040014030B58BB005460C460121480485
:103F900000F08CFE0121022000F048FE03220821DF
:103FA0001E48FEF7A1FB4FF48070099002208DF8A7
:103FB000280003208DF8290000208DF82A00012018
:103FC0008DF82B0009A91548FEF746FB0795ADF8BB
:103FD00018400120ADF820000020ADF81A0006A915
:103FE0000F4801F0BBFD6020ADF804000120ADF8E2
:103FF00006000020ADF8100001A9094801F034FCCA
:104000000821074801F06EFC0121054801F098FBEA
:104010000121034801F0A3FB0BB030BD00040240B6
:10402000004401407047000070B5002100230F22BA
:10403000C4781CB3174C246804F4E064C4F5E0644D
:10404000C4F30721C1F10404E3B20A4144789C405F
:10405000E1B28478144021430C07210E0E4C057800
:104060006155047804F01F050124AC4005786D11FA
:10407000AD0005F1E025C5F8004109E0047804F041
:104080001F050124AC40054D0678761145F8264001
:1040900070BD00000CED00E000E400E080E100E015
:1040A00002490143024A1160704700000000FA050E
:1040B0000CED00E030B500240CE0002506E0002007
:1040C000074901EBC5010855681CC5B2802DF6DB18
:1040D000601CC4B2082CF0DB00F0F0F830BD00002A
:1040E000EC030020F0B5144600267F2801DC3F29B0
:1040F00000DDF0BD0B46CF1701EB5777FF10C7F17E
:104100000707FAB2CF1701EB5777FF10A1EBC707EC
:10411000FDB2C5F107070123BB40DEB24CB10A4B2B
:1041200003EBC0039B5C3343074F07EBC007BB5453
:1041300008E0054B03EBC0039B5CB343024F07EB66
:10414000C007BB5400BFD4E7EC0300202DE9F041C9
:1041500006460D46174600243A4629463046FFF7E4
:10416000C1FF3A4629463046FFF7BCFF00BF07E0D3
:104170002819C1B23A463046FFF7B4FF601CC4B2FA
:10418000082CF5DBBDE8F0811CB50121082000F00A
:104190004DFD4FF4F040009001208DF80400002008
:1041A0008DF806008DF805008DF807006946404837
:1041B000FEF752FA0121080700F058FD012000F037
:1041C0002FFD002000F006FE002000F029FD002059
:1041D00038490860642003F0D7FE01203649C1F851
:1041E000B0020021AE2000F06BF90021D52000F0D4
:1041F00067F90021502000F063F90021A82000F0A9
:104200005FF900213F2000F05BF90021D32000F08E
:1042100057F90021084600F053F90021402000F032
:104220004FF900218D2000F04BF90021142000F0FF
:1042300047F90021202000F043F90021022000F07E
:104240003FF90021A12000F03BF90021C02000F03F
:1042500037F90021DA2000F033F90021122000F0B4
:104260002FF90021812000F02BF90021EF2000F030
:1042700027F90021D92000F023F90021F12000F0D6
:104280001FF90021DB2000F01BF90021302000F095
:1042900017F90021A42000F013F90021A62000F056
:1042A0000FF90021AF2000F00BF9FFF703FF1CBD51
:1042B000000C0240B08241420080414230B50024EF
:1042C0001CE004F1B001C8B2002100F0F9F80021AF
:1042D000084600F0F5F80021102000F0F1F8002564
:1042E00008E0084901EBC501085D012100F0E8F88C
:1042F000681CC5B2802DF4DB601CC4B2082CE0DB66
:1043000030BD0000EC0300202DE9F04F80460C4644
:1043100015461E46A346A5F12000C5B200273EE083
:104320000C2E07D105EB45001F4901EB800010F86A
:10433000079004E01D4800EB051010F807904FF0BF
:10434000000A26E009F0800028B121464046099A7B
:10435000FFF7C8FE09E0099808B9012000E0002035
:10436000024621464046FFF7BDFE4FEA49604FEA4C
:104370001069601CC4B2A4EB0B00B04205D15C46CE
:1043800008F1010000F0FF0806E00AF1010000F06A
:10439000FF0ABAF1080FD5DB00BF781CC7B2B742DD
:1043A000BEDBBDE8F08F000066CC0008DAD0000864
:1043B0002DE9FF4F81B0074691461E460E9D4FF0F6
:1043C000000A002439E0301B401EC1B20A2003F06D
:1043D000D4FEB9FBF0F00A21B0FBF1F201FB1208A8
:1043E000BAF1000F16D1701EA04213DDB8F1000F14
:1043F0000ED10120AB4605EBDB71491001FB0471C6
:104400000090C8B22B4620220299FFF77DFF12E0F0
:104410004FF0010A0120AB4605EBDB71491001FBAF
:1044200004710090C8B208F13001CAB22B4602995B
:10443000FFF76AFF00BF601CC4B2B442C3DB05B023
:10444000BDE8F08F78B505460E46144618E07A2D83
:1044500003DD002506F11000C6B23A2E04DD00206F
:1044600005460646FFF726FE0120009022780C2321
:1044700031462846FFF748FF05F10800C5B2641C25
:1044800020780028E3D178BD70B5002410E00A48F8
:1044900030F8140009490988884201DA012500E052
:1044A00000252A4600212046FFF750FE601CC4B2BA
:1044B000802CECDB70BD0000EC0200202600002008
:1044C00010B50A461AB10123124C236002E0002302
:1044D000104C2360002116E000230E4C0C342360A6
:1044E00000F080031BB10123241F236003E000239D
:1044F000084C083423600123064C0C342360430627
:10450000180E4B1CD9B20829E6DB0123014C2360AD
:1045100010BD0000AC82414201460148405C70473A
:10452000E4530020002004E00021034A1154411C00
:10453000C8B20928F8DB7047E453002038B50446B8
:10454000012000900020214948700120009034E0B3
:10455000BDF80000204018B101201D49086002E0AC
:1045600000201B490860102003F02EFD012018498F
:1045700010390860052003F027FD00201549C1F817
:10458000A002052003F020FD01201249C1F8A0027D
:104590000846D0F83C0230B10C484078BDF8001015
:1045A00008430A494870102003F00EFDBDF80000D2
:1045B0004FF6FF7101EA40000090BDF80000FF28AF
:1045C000C6DD102003F000FD38BD0000E4530020DC
:1045D000B0024242000042422DE9F04114259748C2
:1045E0000068C0F1800696480068C0F180049548D4
:1045F0000068C0F180076842864202DDAE4200DA00
:1046000000266842844202DDAC4200DA002468429F
:10461000874202DDAF4200DA00278B48006800289D
:104620007ED08A4800680B2844D1894890ED000A62
:10463000F7EE000A30EE200A80ED000AF3EE040ADD
:10464000B4EE600AF1EE10FA33D100207F49086021
:104650009FED800A7E4880ED000A7F4890ED000AB9
:10466000DFED7E0A30EE200A80ED000ADFED7C0AE5
:10467000B4EEE00AF1EE10FA03DD9FED790A80ED69
:10468000000A78480078022868D0774890ED000A40
:10469000DFED760A30EE200A80ED000ADFED740AC5
:1046A000B4EEE00AF1EE10FA58DD9FED710A80EDEC
:1046B000000A53E0654800680C2846D16D4890ED2B
:1046C000000AF7EE000A30EE200A80ED000AF2EE52
:1046D0000E0AB4EE600AF1EE10FA3FD100205B49F9
:1046E00008609FED5C0A634880ED000A5A4890ED2F
:1046F000000ADFED5A0A30EE600A80ED000ADFEDB5
:104700005E0AB4EEE00AF1EE10FA03D29FED5A0A07
:1047100080ED000A5348007802281FD0524800E07C
:104720006FE090ED000ADFED510A30EE600A80ED97
:10473000000ADFED4E0AB4EEE00AF1EE10FA0DD2F7
:104740009FED4A0A80ED000A08E09FED420A4948C1
:1047500080ED000A9FED3F0A80ED000A3E4890ED93
:10476000000A9FED461AC0EE010A00EE106AB8EE8C
:10477000C00A20EE800A424880ED000A39480078DD
:1047800018B138480078012810D100EE107AB8EE40
:10479000C00A3148D0ED000A20EE200ADFED370ACA
:1047A00080EE201A374880ED001A04E09FED290AB8
:1047B000344880ED000A2B480078022810D12A489E
:1047C00090ED000A9FED2D1AC0EE010A00EE104A8E
:1047D000B8EEC00A20EE800A2B4880ED000A1FE0E8
:1047E000214890ED000A9FED251AC0EE010A00EE67
:1047F000104AB8EEC00A20EE800A234880ED000A75
:104800000EE09FED140A1E4880ED000A9FED110A8C
:104810001C4880ED000A9FED0F0A1B4880ED000A3E
:10482000194890ED001A1748D0ED000A144890ED91
:10483000000AFCF779FFBDE8F081000010020020BB
:10484000140200200C020020300100201C02002075
:10485000A002002000000000640200200AD7A33D4F
:10486000A4709D3FD001002068020020CDCC4C3EBA
:10487000AE471140A4020020CDCCCC3D0000004347
:1048800020020020240200202802002010B5FFF79B
:1048900049FE00F00FF90F48C0780E49097940EA47
:1048A00001200D49088000240FE00C4810F8140086
:1048B000401E012101FA00F007490988084010B99B
:1048C000601CC0B210BD601CC4B2102CEDDB002017
:1048D000F8E70000E4530020080100201001002048
:1048E00010B5002013490860102003F06DFB012073
:1048F000FFF724FE4320FFF721FE0020FFF71EFEF6
:104900000120FFF71BFE0020FFF718FE0020FFF735
:1049100015FE0020FFF712FE0020FFF70FFE00201B
:10492000FFF70CFE01200449C1F8A802102003F093
:104930004BFB10BDA80242420000424210B50020CD
:1049400013490860102003F03FFB0120FFF7F6FD3C
:104950004320FFF7F3FD0020FFF7F0FD0020FFF7F5
:10496000EDFD5A20FFF7EAFD5A20FFF7E7FD5A2038
:10497000FFF7E4FD5A20FFF7E1FD5A20FFF7DEFDC7
:1049800001200449C1F8A802102003F01DFB10BD4E
:10499000A8024242000042421CB50121102000F052
:1049A00045F94FF40040009000208DF804000320EA
:1049B0008DF8050002208DF8070069460B48FDF7C9
:1049C0004BFE4FF4A850009001208DF80400002009
:1049D0008DF8060002208DF8050001208DF80700F3
:1049E00069460248FDF738FE1CBD00000010024079
:1049F00010B5FFF74BFF214908600720FFF78CFD3A
:104A00001F4908600820FFF787FD1E490860052040
:104A1000FFF782FD1C4908600620FFF77DFD1B495A
:104A2000086016480068042802D10120184908606F
:104A30001748006800B31348006876281CDA154848
:104A40000078C8B901201349087000201249087085
:104A50009FED120A124880ED000A124800780228E1
:104A600005D19FED110A114880ED000A04E09FED89
:104A7000100A0E4880ED000A10BD00001C02002044
:104A80000C02002010020020140200201802002056
:104A9000300100204E02002049020020CDCC4C3EC7
:104AA00064020020D0010020DB0F493F6802002093
:104AB0009A99993E1CB50020019001200090002099
:104AC0002549086025490878FFF738FD23494878CB
:104AD000FFF734FD0220019036E00120009027E02E
:104AE00001201D4908390860052003F06DFA0020F7
:104AF0001B49C1F8A002052003F066FA01201849FD
:104B0000C1F8A0020846D0F83C0250B115489DF803
:104B10000410405CBDF80010084312499DF80420C1
:104B20008854BDF800004FF6FF7101EA4000009084
:104B3000BDF80000FF28D3DD102003F045FA9DF8F2
:104B40000400401CC0B201909DF804000928C4DB99
:104B50000120014908601CBDA80242420A01002050
:104B600000004242E453002010B500F00BF800F0C2
:104B700009F800F007F8FFF7B3FE00F025F8FFF79B
:104B8000DDFE10BD10B500200D490860102003F0B7
:104B90001BFA0120FFF7D2FC4220FFF7CFFC0020D8
:104BA000FFF7CCFC0020FFF7C9FC0020FFF7C6FC94
:104BB00001200449C1F8A802102003F005FA10BD35
:104BC000A80242420000424210B50020124908608B
:104BD0000120FFF7B3FC4420FFF7B0FC0020FFF7F3
:104BE000ADFC0120FFF7AAFC0320FFF7A7FC002083
:104BF000FFF7A4FC0020FFF7A1FC0020FFF79EFCBC
:104C00000020FFF79BFC01200449C1F8A8021020F6
:104C100003F0DAF910BD0000A8024242000042424F
:104C2000014908627047000000000E4229B1064A9F
:104C300012680243044B1A6004E0034A126882437C
:104C4000014B1A60704700003038024029B1064A13
:104C500012680243044B1A6004E0034A126882435C
:104C6000014B1A60704700001438024029B1064A0F
:104C700012680243044B1A6004E0034A126882433C
:104C8000014B1A60704700004038024029B1064AC3
:104C900012680243044B1A6004E0034A126882431C
:104CA000014B1A60704700002038024029B1064AC3
:104CB00012680243044B1A6004E0034A12688243FC
:104CC000014B1A60704700004438024029B1064A7F
:104CD00012680243044B1A6004E0034A12688243DC
:104CE000014B1A607047000024380240F0B50021E3
:104CF00000220024022500260223324F3F6807F0DD
:104D00000C0121B1042905D0082937D105E02E4F27
:104D1000076036E02D4F076033E02A4F3F1F3F68A2
:104D2000C7F38056274F3F1F3F6807F03F036EB120
:104D3000264FB7FBF3F7DFF88CC0ACF1040CDCF8BE
:104D400000C0CCF3881C07FB0CF40CE01E4FB7FB33
:104D5000F3F7DFF870C0ACF1040CDCF800C0CCF362
:104D6000881C07FB0CF4174F3F1F3F68C7F3014730
:104D70007F1C7D00B4FBF5F7076002E0124F07606F
:104D800000BF00BF0F4F3F6807F0F0010909104F47
:104D90007A5C0768D74047600A4F3F6807F4E051E4
:104DA000890A0B4F7A5C4768D7408760054F3F6898
:104DB00007F46041490B064F7A5C4768D740C760EB
:104DC000F0BD0000083802400024F40000127A0010
:104DD000420100200021094A11701170012802D0FF
:104DE000042808D103E00121044A117004E00521E0
:104DF000024A117000E000BF00BF704770380240E7
:104E000070B500240025012027490860FCF786FCC6
:104E100000202649C1F89002FCF780FC00202249BE
:104E20000860FCF77BFC00202049C1F89002FCF7E9
:104E300075FC01201E490860FCF770FC00201A492F
:104E40000860FCF76BFC012019490860FCF766FC60
:104E5000012015490860FCF761FC01201249086037
:104E6000FCF75CFC00201149C1F89002FCF756FCED
:104E700000BF15E000200C490860FCF74FFC04203F
:104E8000FDF75AFC00110B4921F81500681CC5B24A
:104E900001200949C1F89402FCF740FC601CC4B22F
:104EA000802CE7DB70BD00009402404200004142CC
:104EB00090024142EC0200200000404201460229DB
:104EC00006D003290DD0042912D005291ED116E0E1
:104ED0004FF08042526A10B200224FF080435A6273
:104EE00016E00C4A126810B200220A4B1A600FE05A
:104EF000094A126810B20022074B1A6008E0074AFC
:104F0000126810B20022054B1A6001E0002000BFB9
:104F100000BF70472404004024080040240C0040D7
:104F200010B52DED088BB0EE40BAF0EE60BAB0EEE1
:104F3000418AF0EE618AB0EE429AF0EE629AB0EEEB
:104F400043AA51EC1B0B06F0C9FF1D490860084637
:104F500080ED018AC0ED058ABDEEC90A80ED020A26
:104F6000BDEEE90A80ED030A80ED04AAC068800066
:104F70008968484300EE100AB8EEC00A114880ED77
:104F8000000A0F4890ED040ADFED0F0A20EE200A18
:104F90000E4880ED000A0A4890ED000A0C4880EDAA
:104FA000000A074890ED010A0A4880ED000A04480B
:104FB00090ED050A084880ED000ABDEC088B10BD95
:104FC000A8A7002034020020DB0F4940380200204F
:104FD0003C020020400200204402002010B54FF4A3
:104FE000AD703B4908600A210920FEF7E3F9384912
:104FF000096890FBF1F037490870084600780528E9
:1050000001DD052008703348007806285ED2DFE80D
:1050100000F0031221303F4E9FED2F3AF2EE0A2AA4
:10502000B3EE0E2ADFED2D1A9FED2D1A9FED2D0BFD
:10503000FFF776FF4AE09FED2D3AF2EE0A2AB3EE33
:105040000E2ADFED2B1A9FED251A9FED2A0BFFF795
:1050500067FF3BE09FED293AF2EE0A2AB3EE0E2AF3
:10506000DFED1E1A9FED261A9FED260BFFF758FF66
:105070002CE09FED223AF2EE0A2AB3EE0E2ADFED83
:10508000171A9FED161A9FED210BFFF749FF1DE040
:105090009FED1A3AF2EE0A2AB3EE0E2ADFED0F1A4E
:1050A0009FED1C1A9FED1C0BFFF73AFF0EE09FEDE2
:1050B0001C3AF2EE0A2AB3EE0E2ADFED081A9FED33
:1050C000071A9FED180BFFF72BFF00BF00BF10BDA5
:1050D000CC010020D00100209A99993D00000000E9
:1050E0007B14AE3D022B8716D9CEB73F8FC2753DDC
:1050F000E17A943E0000000000000000B81E853DEB
:10510000BC74133E000000806ABCC43F000000A0D5
:10511000EFA7C63FE926313E000000C09DEFC73F24
:10512000C520303D000000E07A14CE3F30B58BB092
:1051300005460C4601210220FFF7B8FD012104209D
:10514000FFF774FD02208DF828000002099003206B
:105150008DF8290000208DF82A0001208DF82B0001
:1051600009A91B48FDF778FA032209211848FDF721
:10517000BBFA0795ADF818400020ADF82000ADF857
:105180001A0006A9134800F0E9FC6020ADF80400FD
:105190000120ADF8060000200390ADF81000ADF836
:1051A000140001A90B4800F061FC0821094800F037
:1051B00099FC0121074800F0DEFA0121054800F0C2
:1051C000CEFA40F2DC500349403108600BB030BDEC
:1051D00000080240000401400CB50020019000903E
:1051E0003448006840F480303249086000BF3148DC
:1051F000006800F4003000900198401C0190009875
:1052000018B90198B0F5A04FF1D12A48006800F410
:10521000003010B10120009001E0002000900098C3
:10522000012846D123484030006840F08050214991
:10523000403108602048006840F440401E49086042
:105240001C48083000681B4908310860084600689F
:1052500040F4004008600846006840F4A050086030
:105260001648091F0860081F006840F08070091F79
:10527000086000BF0F48006800F000700028F9D0F7
:1052800040F205700E4908600A480830006820F0B6
:1052900003000849083108600846006840F0020031
:1052A000086000BF03480830006800F00C000828C0
:1052B000F8D10CBD0038024000700040085440078F
:1052C000003C024070B5049C002807DA44F2A015A7
:1052D0001E4E356005441E4E356006E044F2A015B2
:1052E0001B4E35602D1A194E3560002906DA44F23E
:1052F000A015184E75630D44B56305E044F2A01582
:10530000144EB5636D1A7563002A06DA44F2A015CF
:10531000114E75631544B56305E044F2A0150E4EB9
:10532000B563AD1A7563002B06DA44F2A0150A4E78
:1053300035641D44F56305E044F2A015064EF5639F
:10534000ED1A3564054D2C6070BD000034480140F5
:10535000344401400040014000000140400401404D
:1053600000B5F0EE403AF0EE602AB0EE413A9FED23
:10537000680AB0EE402AF5EEC03AF1EE10FA07DD09
:10538000644890ED000A30EE020A80ED000A1AE04F
:10539000F5EEC03AF1EE10FA07D25E4890ED000A41
:1053A00030EE420A80ED000A0DE0F5EEC03AF1EE73
:1053B00010FA08D1574890ED000ADFED570A20EEA9
:1053C000200A80ED000AF5EEC02AF1EE10FA07DDA2
:1053D000504890ED010A30EE020A80ED010A1AE011
:1053E000F5EEC02AF1EE10FA07D24A4890ED010A14
:1053F00030EE420A80ED010A0DE0F5EEC02AF1EE32
:1054000010FA08D1434890ED010ADFED430A20EE7F
:10541000200A80ED010AB5EEC03AF1EE10FA07DD80
:105420003C4890ED020A30EE020A80ED020A1AE0D2
:10543000B5EEC03AF1EE10FA07D2364890ED020A06
:1054400030EE420A80ED020A0DE0B5EEC03AF1EE10
:1054500010FA08D12F4890ED020ADFED2F0A20EE56
:10546000200A80ED020AB0EE630A02F027FEB0EED9
:10547000404AB0EE630A02F021FEB1EE400AF0EEBF
:10548000404A2448D0ED000AB0EE600AB0EE441A5B
:10549000F0EE640A05F0FCF81E4880ED000AB0EE5C
:1054A000620A02F00BFEB0EE404AB0EE620A02F071
:1054B00005FEB1EE400AF0EE404A1648D0ED010A72
:1054C000B0EE600AB0EE441AF0EE640A05F0E0F8BF
:1054D000104880ED010AB0EE430A02F0EFFDB0EE95
:1054E000404AB0EE430A02F0E9FDB1EE400AF0EEA8
:1054F000404A0848D0ED020AB0EE600AB0EE441A05
:10550000F0EE640A05F0C4F8024880ED020A00BD1E
:105510000AD7233C3CA700206666663F042808D1D2
:105520004FF0E021096941F004014FF0E0221161E0
:1055300007E04FF0E021096921F004014FF0E0227B
:105540001161704710B506F015FA012801D005F079
:1055500097FE10BD10B51548006840F4700013495F
:1055600008601348006840F00100114908600020FD
:105570000F49083108600E4800680E4908400C4980
:1055800008600D48091D0860081F006820F480208D
:10559000091F0860002006490C310860FFF71CFE57
:1055A0004FF0006001498039086010BD88ED00E0CF
:1055B00000380240FFFFF6FE10300024F0B50C4624
:1055C000154600210022068C4FF6FE773E400684E9
:1055D000018B028C4FF60C7631407E1C06EA0316D6
:1055E0002E4331434FF6F576324044F00106324304
:1055F00001830284F0BDF0B50C461546002100225F
:105600000026078C4FF6EF7C07EA0C070784018B16
:10561000028C4FF6FF7707EA041640F6FF47394041
:105620004FF6FF7707EA033739434FF6FF7707EA6C
:10563000052739434FF65F773A4046F010073A4363
:1056400001830284F0BDF0B50C461546002100220E
:105650000026078C4FF6FF6C07EA0C070784818B46
:10566000028C4FF6FF7707EA04264FF60C77394095
:105670004FF6FF7707EA03172F4339434FF2FF57DF
:105680003A4046F480773A4381830284F0BDF0B516
:105690000C461546002100220026078C4EF6FF7CA2
:1056A00007EA0C070784818B028C4FF6FF7707EA25
:1056B000043640F6FF4739404FF6FF7707EA0527E3
:1056C00039434FF6FF7707EA0337394345F6FF774B
:1056D0003A4046F480573A4381830284F0BD4FF04C
:1056E0008040008A4FF08040008A20F001004FF097
:1056F0008041088270470000044800880348008801
:1057000020F00100014908807047000010040040AB
:10571000044800880348008820F0010001490880FF
:1057200070470000100800400448008803480088C3
:1057300020F001000149088070470000100C004073
:1057400021B1028842F08002028004E002884FF614
:105750007F731A4002807047CA430282704721B1AA
:10576000028842F00102028004E002884FF6FE73D4
:105770001A400280704731B1B0F8442042F4004230
:10578000A0F8442005E0B0F84420C2F30E02A0F8CF
:1057900044207047F0B50C4615461E4600210022F5
:1057A00000230189028B038C4FF6F877394021439F
:1057B0004FF6FC473A4040F201173A434FF6DD7787
:1057C0003B404FF6FF7707EA06172F433B43018123
:1057D00002830384F0BD70B505460C46208850B99D
:1057E0002389A28861882846FFF7E8FEE1882846D9
:1057F00000F087F925E0208804280AD12389A288AF
:1058000061882846FFF7F7FEE188284600F082F914
:1058100017E0208808280AD12389A28861882846B1
:10582000FFF711FFE188284600F081F909E023899C
:10583000A28861882846FFF72AFFE188284600F001
:105840007FF970BD0021018041800121818000210C
:10585000C180018170471AB183890B43838102E0C3
:1058600083898B438381704770B500240022002315
:10587000058C4FF6FE7635400584028C8388048BB8
:105880004FF68F752C40B51E2C400D882C43751E8D
:105890002A408D892A434D882A43104DA84202D0C0
:1058A0000F4DA84213D14FF6F7752A40CD892A43F0
:1058B0004FF6FB752A408D882A434FF6FF652B4033
:1058C0004FF6FF552B400D8A2B434D8A2B43838087
:1058D00004838D684563028470BD000000000140B0
:1058E000000401400A460021018B4FF6F77319406E
:1058F000114301837047000070B50024002200238B
:10590000058C4FF6EF7635400584028C8388048B36
:1059100048F6FF752C404FF6FF452C400D884FF69A
:10592000FF7606EA05252C434FF6DF752A408D8960
:1059300006EA05152A434D8806EA05152A43154D42
:10594000A84202D0144DA8421DD14FF67F752A40BF
:10595000CD894FF6FF7606EA05152A434FF6BF7547
:105960002A408D8806EA05152A434FF6FF352B405D
:105970004FF2FF752B400D8A06EA85052B434D8AB1
:1059800006EA85052B43838004838D688563028442
:1059900070BD000000000140000401400A460021E3
:1059A000018B4FF2FF7319404FF6FF7303EA022396
:1059B000194301837047000070B5002400220023C2
:1059C000058C4FF6FF6635400584028C8388848BF6
:1059D0004FF68F752C404FF6FC752C400D882C43EC
:1059E0004FF6FF552A408D894FF6FF7606EA0525CA
:1059F0002A434D8806EA05252A43154DA84202D0C0
:105A0000144DA8421DD14FF2FF752A40CD894FF6A3
:105A1000FF7606EA05252A434FF6FF352A408D8892
:105A200006EA05252A434EF6FF752B404DF6FF7515
:105A30002B400D8A06EA05152B434D8A06EA05150B
:105A40002B43838084838D68C563028470BD00000E
:105A500000000140000401400A460021818B4FF6FE
:105A6000F7731940114381837047000070B500221D
:105A700000230024058C4EF6FF7635400584038C08
:105A80008488828B48F6FF752A404FF6FF452A40EE
:105A90000D884FF6FF7606EA05252A434DF6FF7579
:105AA0002B408D8906EA05352B434D8806EA0535DE
:105AB0002B430A4DA84202D0094DA84208D14BF60B
:105AC000FF752C400D8A4FF6FF7606EA85152C43AC
:105AD000848082838D680564038470BD000001406A
