:020000040800F2
:100000002088002031030008E12E00082124000888
:10001000ED2B0008C9100008014C0008000000008A
:10002000000000000000000000000000790200084D
:100030002D11000800000000CD0200084940000812
:100040004B0300084B0300084B0300084B03000858
:100050004B0300084B0300084B0300084B03000848
:100060004B0300084B0300084B0300084B03000838
:100070004B0300084B0300084B0300084B03000828
:100080004B0300084B0300084B0300084B03000818
:100090004B0300084B0300084B0300084B03000808
:1000A0004B0300084B0300084B0300084B030008F8
:1000B0001D4100082D410008414100084B03000884
:1000C0004B0300084B0300084B0300084B030008D8
:1000D0004B03000825470008454700084B0300086C
:1000E0004B0300084B0300084B0300084B030008B8
:1000F0004B0300084B0300084B0300084B030008A8
:100100004B0300084B030008554100084B0300084F
:100110004B030008B14500084B0300084B030008DF
:100120004B0300084B0300084B0300084B03000877
:100130004B0300084B0300084B0300084B03000867
:100140004B0300084B0300084B0300084B03000857
:100150004B0300084B0300084B0300084B03000847
:100160004B0300084B0300084B0300084B03000837
:100170004B0300084B0300084B0300084B03000827
:100180004B0300084B03000800F002F800F064F88D
:100190000AA090E8000C82448344AAF10107DA45E2
:1001A00001D100F059F8AFF2090EBAE80F0013F0D0
:1001B000010F18BFFB1A43F001031847B4B6000043
:1001C000D4B600000A444FF0000C10F8013B13F0C5
:1001D000070408BF10F8014B1D1108BF10F8015BA0
:1001E000641E05D010F8016B641E01F8016BF9D193
:1001F00013F0080F1EBF10F8014BAD1C0C1B09D1EA
:100200006D1E58BF01F801CBFAD505E014F8016B5B
:1002100001F8016B6D1EF9D59142D6D370470000ED
:100220000023002400250026103A28BF78C1FBD8FF
:10023000520728BF30C148BF0B607047642900F0E7
:100240000381732900F06482002070471FB509F014
:100250005EFF1FBD10B510BD00F0AEFA1146FFF7EE
:10026000F5FF06F06DFA00F0CCFA03B4FFF7F2FFE9
:1002700003BC06F025F800002A4B19680868B0E8AE
:10028000F04F80F30988BFF36F8F4FF0000080F3C9
:10029000118870470000000006480068006880F37D
:1002A000088862B661B6BFF34F8FBFF36F8F00DF70
:1002B00000BF00BF08ED00E0DFF80C00016841F46A
:1002C00070010160704700BF88ED00E0EFF3098026
:1002D000BFF36F8F134B1A681EF0100F08BF20ED8D
:1002E000108A20E9F04F106008B44FF0500080F3FE
:1002F0001188BFF34F8FBFF36F8F08F089FA4FF06B
:10030000000080F3118808BC19680868B0E8F04F55
:100310001EF0100F08BFB0EC108A80F30988BFF3FD
:100320006F8F704740010020EFF305807047000099
:100330000948804709480047FEE7FEE7FEE7FEE779
:10034000FEE7FEE7FEE7FEE7FEE7FEE704480549B5
:10035000054A064B704700005D400008890100080F
:10036000208200202088002020840020208400207B
:10037000704700000FB4044910B503AA029800F0BA
:10038000CBF910BC5DF814FB2C0100202DE9F041E5
:100390000E460446002020622046E168884730B3BC
:1003A000252805D0D4E901219047206A401CF2E7B6
:1003B000E168204600278847050018D0A5F14100D4
:1003C000192802D820354FF40067324629462046C6
:1003D0002760FFF733FF40B1012804D0F61D26F057
:1003E00007060836D8E7361DD6E72846DAE7206A3A
:1003F000BDE8F08170B50C460546012A05D0287885
:10040000800600D5EA69002302E0012305E05B1CB9
:10041000934202D2E05C0028F9D1A869E618C01A1C
:10042000A861286A184428622846AFF3008004E0D7
:10043000D5E9012114F8010B9047B442F8D32846BE
:10044000AFF3008070BD00002DE9F04106460024A6
:1004500010687529314616A510D0AFF3008000282A
:1004600002DA404213A507E031688A0701D512A5D8
:1004700002E0490704D511A5012401E0AFF3008093
:1004800000210A2206F1240709E0B0FBF2FCB0FBD0
:10049000F2F302FB1C00303078541846491C002847
:1004A000F3D123462A463046BDE8F04100F0ADB80E
:1004B000000000002D0000002B00000020000000C4
:1004C000032A40F2308010F0030C00F0158011F880
:1004D000013BBCF1020F624498BF11F801CB00F858
:1004E000013B38BF11F8013BA2F1040298BF00F8AC
:1004F00001CB38BF00F8013B11F0030300F01E816F
:10050000083AC0F0088051F8043B083A51F804CB8F
:10051000A0E80810F5E7121D5CBF51F8043B40F855
:10052000043BAFF30080D20724BF11F8013B11F860
:1005300001CB48BF11F8012B24BF00F8013B00F8A4
:1005400001CB48BF00F8012B704702F0FF0343EADC
:10055000032242EA024200F002B84FF000020429EE
:10056000C0F0128010F0030C00F01B80CCF1040CE2
:10057000BCF1020F18BF00F8012BA8BF20F8022B16
:10058000A1EB0C0100F00DB85FEAC17C24BF00F8BC
:10059000012B00F8012B48BF00F8012B70474FF0EA
:1005A000000200B5134694469646203922BFA0E8C3
:1005B0000C50A0E80C50B1F12001BFF4F7AF0907CF
:1005C00028BFA0E80C5048BF0CC05DF804EB8900C0
:1005D00028BF40F8042B08BF704748BF20F8022B03
:1005E00011F0804F18BF00F8012B7047704770471B
:1005F0007047704710B500F0D3F8006810BD10B513
:10060000044600F0CDF8046010BD2DE9F0470D461A
:1006100099469246044600F124080168880604D5EC
:10062000E06921F01001216000E00120A84201DD15
:10063000471B00E00027A1697A1902EB0900081A9C
:10064000A0612078C00602D42046AFF300800026C7
:1006500008E0D4E901211AF806009047206A401CFE
:10066000761C20624E45F4DB2078C0060AD5204671
:10067000AFF3008006E0D4E9012130209047206AE2
:10068000401C2062381EA7F10107F4DC07E0D4E922
:10069000012118F805009047206A401C2062281E9E
:1006A000A5F10105F3DC2046AFF3008020780006B9
:1006B00002D50220BDE8F0870120FBE701694A1C52
:1006C00002610878704700B58FB0CDE90131002193
:1006D000059105497944CDE9031011466846FFF7B5
:1006E00055FE0FB000BD0000E5FFFFFF10B54369E8
:1006F00013B1AFF3008001E0FFF77CFE012010BDD5
:10070000127800F124010A7000224A700122EDE7FC
:1007100011684FF0FF32E9E7074B70B50D467B4497
:10072000FFF7D1FF0446284600F03EF810B14FF025
:10073000FF3070BD204670BDCB5F000010B5203A81
:10074000C0F00B80B1E81850203AA0E81850B1E88A
:100750001850A0E81850BFF4F5AF5FEA027C24BF40
:10076000B1E81850A0E8185044BF18C918C0BDE837
:1007700010405FEA827C24BF51F8043B40F8043B00
:1007800008BF7047D20728BF31F8023B48BF11F8B5
:10079000012B28BF20F8023B48BF00F8012B70470F
:1007A00000487047C0810020007B00F08000704747
:1007B00000487047C08100207546FFF7F9FFAE463C
:1007C00005006946534620F00700854618B020B55D
:1007D000FFF7BCFDBDE820404FF000064FF00007DA
:1007E0004FF000084FF0000B21F00701AC46ACE8D9
:1007F000C009ACE8C009ACE8C009ACE8C0098D4646
:10080000704710B50446AFF300802046BDE81040A5
:10081000FFF72BBD0029816802D041F0010101E002
:1008200021F0010181607047084B10B5D3F8042313
:1008300007490A40D0E900142143D0E902400443AB
:1008400021431143C3F8041310BD000000200140F0
:10085000E030FCFF10B501210C02204603F0ACF89B
:100860002046BDE81040002103F0A6B8C06C80B25D
:1008700070470246002012680A4200D001207047EB
:1008800030B542680F4B0C791A400B6842EA0422DB
:100890001343436082680C4B4D791A40D1E90343FE
:1008A00023438C6844EA4504234313438360C26AAC
:1008B000097D22F47002491EC9B242EA0151C162A7
:1008C00030BD0000FFFEFFFCFDF7FFC070B507263E
:1008D00009290AD9C568A1F10A0404EB4404A64019
:1008E000B543A3401D43C56007E0056901EB410422
:1008F000A640B543A3401D4305611F23072A09D223
:10090000446B521E02EB820293409C4391400C4385
:10091000446370BD0D2A09D2046BD21F02EB820220
:1009200093409C4391400C43046370BDC46A0D3AEC
:1009300002EB820293409C4391400C43C46270BD21
:10094000816841F08041816070470000FEB58748B2
:10095000D0ED000A9FED861A9FED860A10EE810AFF
:10096000F3EE0B0A80EE201ABDEEC10A10EE103A2B
:10097000642B00DD6423804890ED000ADFED7F0AE0
:1009800020EE200ABDEEC00A10EE100A002800DAA0
:1009900040427B4991ED000A20EE200ABDEEC00ADC
:1009A00010EE101A002900DA4942764C2278B2B1D2
:1009B0000022764D2270744C95ED000A2678BDEE2B
:1009C000C00A012E0DD0002A77D003B0CBB2BDE80B
:1009D000F040C2B210EE101A6DA0FFF7CBBC01229E
:1009E000E7E76F48007806281BD0052829D004289F
:1009F0003BD0032872D06B48D0ED000A6A48FDEE68
:100A0000E00A10EE903AD0ED000AFDEEE00A10EE9A
:100A1000902A10EE101A65A0FFF7ACFC00202070A1
:100A2000FEBD664890ED000A6548BDEEC00A10EEB6
:100A3000103A90ED000A6348BDEEC00A10EE102A8D
:100A40000EE0614890ED000A6048BDEEC00A10EE6D
:100A5000103A90ED000A5E48BDEEC00A10EE102A72
:100A600090ED000ABDEEC00AD3E75A48007802288C
:100A700013D0032822D0042831D0574890ED000A23
:100A80005648BDEEC00A10EE103A90ED000A5448E8
:100A9000BDEEC00A10EE102AE2E7524890ED000ABF
:100AA0005148BDEEC00A10EE103A90ED000A4F48D2
:100AB000BDEEC00A10EE102AD2E74EE04C4890ED91
:100AC000000A4C48BDEEC00A10EE103A90ED000A44
:100AD0004948BDEEC00A10EE102AC1E70FE04748B2
:100AE00090ED000A4648BDEEC00A10EE103A90EDB7
:100AF000000A4448BDEEC00A10EE102AB0E7424892
:100B000090ED000A4148FDEEC00A90ED000A404811
:100B1000BDEEC00A90ED001A3E48BDEEC11A8DED43
:100B2000001A8DED010ACDED020A90ED000A3A4857
:100B3000BDEEC00A10EE103A90ED000A3748BDEE47
:100B4000C00A10EE102A90ED000A35A0BDEEC00AD2
:100B500010EE101AFFF70EFC60E7CAB2C1B2CDE981
:100B6000001235A0FFF706FCFEBD0000400000208B
:100B700000007A4400401C46488100200000C84222
:100B80005C810020AC02002037020020B801002068
:100B90007B4225643A25643A25647D2400000000E8
:100BA0003C020020F0010020EC0100207B43256482
:100BB0003A25643A25647D2400000000E801002005
:100BC000E401002048020020E0010020DC010020B8
:100BD00044020020B5010020A00000209C0000205D
:100BE0009800002088000020840000208000002061
:100BF0007C00002078000020740000209400002079
:100C0000900000208C000020B8000020B4000020DC
:100C1000B0000020AC000020A8000020A4000020AC
:100C20007B4325643A25643A25643A25643A256471
:100C30003A25647D240000007B4125643A25643A0E
:100C400025643A25643A25647D2400002DE9F041AD
:100C50008CB00121062002F073FE4FF48078012150
:100C6000404602F09DFE03251D4F01268DF81C50C5
:100C7000002406968DF81F4006A9384600F0E0FFD4
:100C8000022006908DF81C508DF81F4006A93846AA
:100C900000F0D6FF0121404602F08EFE00214046C2
:100CA00002F08AFE089430040B94CDE9090408A8E8
:100CB000FFF7BAFD8DF8044000948DF805400294CA
:100CC0000494084C8DF8146069462046FFF7D8FD5F
:100CD00001212046FFF79EFD0CB0BDE8F081000029
:100CE000000402400020014010B530EEC01A554CFF
:100CF000554984ED171AD4ED191A71EE811A11EEC7
:100D0000900AC4ED191A9FED512A884202DD84ED44
:100D1000192A08E011EE900A4D49884203D9DFED07
:100D20004D1AC4ED191A4C480078DFED4C1A4549AC
:100D300030EEC00A0428D1ED1A2A30EE620A2FD014
:100D4000022846D003285DD005285BD0D4ED0A0ADE
:100D500060EE810A9FED423AC0EE832AD4ED0C0A80
:100D600094ED193A60EE830A80EEA13AD4ED0B1AA5
:100D700020EE210AC0EE021A72EEC30A30EEE10A3A
:100D800084ED180A374884ED1A1A90ED000ABDEE7A
:100D9000C00A10EE100A03F0F9FB01284BD04EE018
:100DA000D4ED070AD4ED192A20EE812AC2EE210AD9
:100DB00094ED092A22EE222AC2EE212A94ED082A75
:100DC00020EE020A80EE212A70EEA20A30EE820A9C
:100DD000D6E7D4ED040A94ED193A60EE812AC2EE0A
:100DE000A10AD4ED062A62EE832A82EEA13AD4ED5E
:100DF000051A20EE210AC0EE021A70EE830A30EEC8
:100E0000A10ABDE7D4ED010AD4ED192A20EE812A0A
:100E1000DFED150AC2EE201A94ED032A22EE222AF3
:100E2000C2EE202A71EEA20AD4ED021A41EE800A27
:100E3000C4ED180AA6E79FED0D0A84ED190A94ED9A
:100E4000180A10BD7000002000007A4400007A44A7
:100E500000007AC400007AC4B50100200050C347E6
:100E60000050C3C7400000200000C842000000003E
:100E70001CB505F047FCDFF82C828B4D8B4EDFF85C
:100E800030A2DFF8309240F6B83B002401900A21EE
:100E900001A807F0EBFAD8F808004746584501DAF0
:100EA000401CB86001F0DEF9322005F09FFA0128FD
:100EB00002D002281FD111E03879401CC0B238712D
:100EC000062805D0052806D0062814D93C7112E062
:100ED00005F0B2FB0FE005F02BFA0CE0387818B102
:100EE0000020387010B106E00120FAE74FF4E1610C
:100EF0007148FFF754FBB8783979884207D0401C15
:100F0000B87002F02BF8B878062800D9BC70387990
:100F1000062835D0002000F0D9F8387908B3012828
:100F200022D0022823D0032824D0042825D0062844
:100F300026D07878401CC0B27870042823D000D91D
:100F40007C705E4890ED000ABDEEC00A10EE100AFB
:100F500003F01CFBD8B100231A461946184600942A
:100F600067E000F0D5FEECE702F030FAE9E701F0C7
:100F7000F5FBE6E701F090FCE3E701F073FDE0E745
:100F800001F06EF8DDE77C7000F0A6FFD9E7D5ED43
:100F9000020A95ED000A01F045FA00EE100AB8EEDB
:100FA000C00A85ED010AD6ED020A96ED000A01F0AD
:100FB00077FA00EE100A5746B8EEC00A86ED010A2D
:100FC000DAED020A9AED000A01F0A8FA00EE100A22
:100FD0004B46B8EEC00A87ED010AD9ED020A99ED39
:100FE000000A01F0D9FA00EE100A44F27400B8EEDB
:100FF000C00A83ED010A01F0B1FD314800780628EE
:10100000BFF445AFDFE800F003182E4C034C00940A
:1010100093ED010ABDEEC00A10EE103A97ED010AF9
:10102000BDEEC00A10EE102A96ED010AB1EE400A9C
:1010300029E002F023FF2AE7009493ED010ABDEEB8
:10104000C00A10EE103A97ED010ABDEEC00A10EE8C
:10105000102A96ED010ABDEEC00A10EE101A95EDA9
:10106000010A18E017480068009093ED010ABDEEF0
:10107000C00A10EE103A97ED010ABDEEC00A10EE5C
:10108000102A96ED010ABDEEC00A10EE101A95ED79
:10109000010AB1EE400ABDEEC00A10EE100AC8E720
:1010A0000094E2E738020020488100205C810020A3
:1010B000708100208481002064080020400000200E
:1010C000B5010020FC010020FEE70000064B4FF4B4
:1010D000807128B1521C824205DB184600F0FEBD2B
:1010E000184600F0F9BD7047000002407CB50121B0
:1010F000084602F025FC01208DF8040000208DF840
:10110000060003208DF805000220074D4FF480747F
:101110008DF8070000946946284600F091FD2146AD
:10112000284600F0D9FD7CBD000002407047000059
:10113000F0B511480021007801281BD10F4B104A4F
:1011400000204FF0937540F2BB244FF4906602EB01
:10115000C0077F681F44AF4206D932F830707F1E47
:10116000A74201D2491CC9B2401CB042EFDB09B111
:101170000120F0BD0020F0BD38020020000090BD2D
:101180006408002010B530EEC00A274C274984EDD2
:101190001B0AD4ED1D0A70EE800A10EE900AC4ED11
:1011A0001D0A884202DDDFED220A06E010EE900AF9
:1011B0002049884203D9DFED200AC4ED1D0AD4ED91
:1011C0000D0A94ED1D2A1E4860EE801ADFED1B0A01
:1011D00081EEA01AD4ED0F1A61EE821A81EEA02AD8
:1011E000D4ED1E1A70EE611A31EE021A94ED0E2A39
:1011F00061EE821A81EEA02A71EE020AC4ED1C0A89
:1012000084ED1E0A90ED000ABDEEC00A10EE100A31
:1012100003F0BCF9012803D19FED0A0A84ED1D0AF1
:1012200094ED1C0A10BD00007000002000007A44FC
:1012300000007A4400007AC400007AC40000C8426A
:1012400040000020000000000020401C1E28FCDBA5
:10125000704700002DE9F0472DED0E8BF0EE418A2E
:10126000B0EE408AB0EE0CEAFD4BDFF8F883FE4E9C
:101270001878FE4FB8EE0CCA9FEDFDDBDFEDFECA1D
:10128000FE4AFF4DFF4CB6EE00AA08B1012810D16E
:10129000B0EE681AB0EE480A02F02AFEFA4890ED65
:1012A000008A90ED019AD0ED028A187868B301287F
:1012B00052D0C0B202287CD0032803D0042879D0B1
:1012C000052878D192ED000AB0EE4E1A68EE800A39
:1012D000B0EE480A00EECA0A00EE8A8AF0EE4C0A26
:1012E00085ED020A84ED028A06F03DFE85ED020AD4
:1012F00094ED020AB0EE4E1AF0EE4C0A06F033FE00
:1013000084ED020AC6ED02CAB8E098ED000A92ED3B
:10131000001A79EE080A30EE010A38EE491AF0EEAA
:10132000601A48EEC00A48EE801AC5ED020AB0EE17
:10133000602AF0EE410A08EE801A48EEC00AB0EECC
:10134000420AC4ED020AC6ED021A87ED021AB0EE97
:101350004E1AF0EE4C0A76E1DFF83083F0EE490ADF
:1013600098ED000A40EE280A20EE280A10EE100A36
:10137000C5ED020A08F05AFE69EE0AEA41EC1B0BC1
:101380001EEE900A08F052FE41EC1A0B18EE100AFD
:1013900008F04CFE41EC190BB0EE4D0AF0EE6D0A70
:1013A00004F072FA9FEDBA1B51EC100B53EC112BA9
:1013B00002E069E02DE163E008F042FB53EC192BF9
:1013C00008F03EFB53EC1A2B08F046FD53EC1B2BA8
:1013D00008F08CF808F058F8A06098ED000A20EEAC
:1013E000280A10EE100A08F021FE41EC190B1EEE3F
:1013F000900A08F01BFE41EC1A0B18EE100A08F0D8
:1014000015FE41EC180BB0EE4D0AF0EE6D0A04F03B
:101410003BFA9FEDA11B51EC100B53EC112B08F084
:101420000FFB53EC182B08F00BFB53EC1A2B08F0B6
:1014300013FD53EC192B08F059F808F025F8B060AB
:1014400095ED020AB0EE4E1AF0EE4C0A06F08BFD56
:1014500085ED020A94ED020AB0EE4E1AF0EE4C0A47
:1014600006F081FD84ED020A96ED020AB0EE4E1AF6
:10147000F0EE4C0A06F077FD86ED020AC7ED02CACF
:10148000BDEC0E8BBDE8F087DFED85AA92ED000A7A
:10149000914620EE0A0A10EE100A08F0C7FD41EC52
:1014A000190B18EE900A08F0C1FD41EC100B04F086
:1014B0002BFAB0EE40BAF0EE60BAD8F8000008F0AF
:1014C000B5FD53EC1B2B08F0CDF853EC192B08F0AD
:1014D000C3FC07F0D9FF02EE100A9FED721ADFED90
:1014E000720AB0EE680A06F03EFDB5EEC00AF0EEF4
:1014F000408AF1EE10FA16D099ED000AF0EE420A99
:1015000040EE4A0A60EE880A80EE821AF0EE420A45
:1015100040EE0A0A20EE880AC0EE020A85ED021AA1
:10152000C4ED020A03E085ED028A84ED028A9FED94
:101530005F0A28EE800A10EE100A08F077FD41ECF1
:101540001B0B18EE900A08F071FD41EC100B9FED9B
:10155000581B03F071FB9FED581B51EC100B53EC23
:10156000112B08F06DFA41EC190B18EE900A08F0F7
:101570005DFD41EC100BB0EE4D1AF0EE6D1A03F06C
:101580005BFB9FED4F1B51EC100B53EC112B08F044
:1015900057FA53EC192B07F0A9FF53EC1B2B08F05B
:1015A0005BFC9FED491B53EC112B07F09FFF07F0ED
:1015B0006BFF00EE100ADFED460A70EE600A9FED49
:1015C000450A454BB0EE4E1A00EEAA0AF0EE4C0A60
:1015D000BDEEC00A83ED000A95ED020A06F0C3FCD9
:1015E00085ED020A94ED020AB0EE4E1AF0EE4C0AB6
:1015F00006F0B9FC84ED020AC6ED02CAC7ED02CAC4
:1016000040F698024FF44871186806F0BCFC186068
:1016100036E792ED000AD8ED000AB0EE4E1A30EE31
:10162000200A60EE280AB0EE480A00EECA0A00EE70
:101630008A8AF0EE4C0A85ED020A84ED020A86EDF4
:10164000028A87ED028A06F08EFC85ED020A94ED8F
:10165000020AB0EE4E1AF0EE4C0A06F084FC3DE0B1
:10166000B50100202C020020708100208481002020
:1016700000000000000008400000000028020020D8
:10168000488100205C8100203C8100203002002045
:10169000000000000000E0BF000000000000E03F8C
:1016A000D7231F440AD7A33E48E1FABEE5D0E23F64
:1016B000000000000000004000000000D34DF43F97
:1016C000000000809318E4BF000000E07A14FC3FA3
:1016D000D7A3E03F0080BB44FC01002084ED020A58
:1016E00096ED020AB0EE4E1AF0EE4C0A06F03BFC04
:1016F00086ED020A97ED020AB0EE4E1AF0EE4C0AA1
:1017000006F031FC87ED020ABAE600001CB50121A3
:10171000082002F015F90820009000208DF8040040
:1017200003208DF8050001208DF807006946024866
:1017300000F086FA1CBD0000000C0240F0B501214B
:1017400089B0084602F014F90121032002F0F8F8EC
:1017500003258DF8055002264FF400408DF80460F3
:1017600001242B4F00908DF806408DF80740694604
:10177000384600F065FA8DF805508DF804608DF854
:1017800006408DF807400820224C0090694620460C
:1017900000F056FA01220F21384600F08DFA01229E
:1017A0000321204600F088FA02A802F0E5FE00249A
:1017B0004FF6FF70ADF8084003907507ADF8104084
:1017C000ADF80A4002A9284602F098FE00231A4606
:1017D0000321284602F0EAFC05A802F056FDADF808
:1017E0001C4005A9284602F0FAFC0121284602F017
:1017F000C5FC01221146284602F04FFD0021284673
:1018000002F052FE0121284602F0BBFC09B0F0BDF7
:10181000000002400004024030B589B001210220DE
:1018200002F0A6F80121022002F08AF8302003908D
:1018300003208DF8110002208DF8100001208DF892
:101840001200224C8DF8130003A9204600F0F8F98D
:1018500002220421204600F02FFA02220521204610
:1018600000F02AFA684602F087FE00244FF6FF7067
:10187000174DADF800400190ADF80840ADF80240BA
:101880006946284602F03AFE00231A4603212846FC
:1018900002F08CFC05A802F0F8FCADF81C4005A98C
:1018A000284602F09CFC0121284602F067FC012238
:1018B0001146284602F0F1FC0021284602F0F4FD12
:1018C0000121284602F05DFC09B030BD0004024051
:1018D0000004004030B589B00121042002F048F82E
:1018E0000121022002F02CF8C020039003208DF883
:1018F000110002208DF8100001208DF81200224CFA
:101900008DF8130003A9204600F09AF9022206215F
:10191000204600F0D1F902220721204600F0CCF940
:10192000684602F029FE00244FF6FF70174DADF80F
:1019300000400190ADF80840ADF8024069462846E5
:1019400002F0DCFD00231A460321284602F02EFC9B
:1019500005A802F09AFCADF81C4005A9284602F043
:101960003EFC0121284602F009FC012211462846CE
:1019700002F093FC0021284602F096FD0121284642
:1019800002F0FFFB09B030BD000402400008004037
:1019900030B589B00121082001F0EAFF0121084695
:1019A00001F0CEFF032003908DF8110002208DF886
:1019B000100001208DF81200224C8DF8130003A9AD
:1019C000204600F03DF902220021204600F074F983
:1019D00002220121204600F06FF9684602F0CCFD9A
:1019E00000244FF6FF70184DADF800400190ADF89F
:1019F0000840ADF802406946284602F07FFD00230A
:101A00001A460321284602F0D1FB05A802F03DFC4E
:101A1000ADF81C4005A9284602F0E1FB012128464B
:101A200002F0ACFB01221146284602F036FC0021F0
:101A3000284602F039FD0121284602F0A2FB09B038
:101A400030BD000000000240000C004070B53B4B70
:101A50003B4C05221D88658122802088668933F8E9
:101A60001010B14200D36181401C80B220807B28DD
:101A7000F3D3A58122802088A58933F81010A942CC
:101A800000D8A181401C80B220807B28F3D36089DC
:101A9000A1890844400820822280228833F812104D
:101AA000814214D903EB42014D8885420FD98D88BC
:101AB00085420CD9CD88854209D20D89854206D24E
:101AC0004989814203D291B2891CA18004E0521C51
:101AD00091B221807629E0D3762161808AB233F8F1
:101AE0001210814214D203EB42014D8885420FD27D
:101AF0008D8885420CD2CD88854209D90D898542D1
:101B000006D94989814203D990B2801CE08004E063
:101B1000521E91B261800529E0D8E088A18808446E
:101B20004008E0812189401A04F026FE5A2801D994
:101B30002089E081E089208170BD0000C40200207E
:101B40001800002010B530EEC01A3449344A01F1B3
:101B5000800481ED1F1AD4ED011A71EE811A11EE85
:101B6000900AC4ED011A904202DDDFED2E1A06E064
:101B700011EE900A2C4A904203D9DFED2C1AC4EDE5
:101B8000011A264A30EEC00A8032294892ED022A14
:101B9000DFED281A007830EE420A022825D001280D
:101BA00023D091ED102AD1ED122AC2EE210A82EE45
:101BB000A12AD4ED012A60EE810A42EE220AD1ED7B
:101BC000112A1D4882EEA12A42EE000AC4ED000A45
:101BD00084ED021A90ED000ABDEEC00A10EE100A64
:101BE00002F0D4FC012811D014E091ED132AD1EDBC
:101BF000152AC2EE210A82EEA12AD4ED012A60EE56
:101C0000810A42EE220AD1ED142ADAE79FED0B0A8F
:101C100084ED010A94ED000A10BD00007000002060
:101C200000007A4400007A4400007AC400007AC4BC
:101C3000B50100200000C842400000200000000064
:101C4000F0B5002201274FF0030C0B6807FA02F5EC
:101C50002B40AB422CD1066853000CFA03F4A64388
:101C600006600E79D0F800E09E4046EA0E06066057
:101C70000E79012E01D0022E12D18668A64386600D
:101C80004E79D0F808E09E4046EA0E068660466827
:101C9000AE43466045688E799640B6B2354345609E
:101CA000C568A543C560CC799C40C3681C43C4602B
:101CB000521C102AC9D3F0BD4B07DB0E9A40C9084D
:101CC00010B500EB8100016A0F249C40A143016222
:101CD000016A1143016210BD41837047018370475F
:101CE00010B50A4C0146072301222046FEF7EEFDFF
:101CF0002046FEF725FE02212046FEF7BAFD002809
:101D0000F9D02046BDE81040FEF7B0BD00200140EC
:101D1000F0B464486449027864480E7805786448F1
:101D200004789FED641A644BDFED642ADFED641ADA
:101D3000644F9FED652A654897ED000A6449F1EE0E
:101D4000400A52B1012A08D0092C66D2DFE804F01B
:101D5000654346494E5156596200092C24D2DFE8AA
:101D600004F02305080B1013181B200080ED000A57
:101D70000CE080ED000A01E080ED001AC3ED000ADE
:101D800053E0C0ED000AF9E7C0ED000A83ED001A48
:101D90004BE0C0ED000A01E080ED001A83ED000A7F
:101DA00043E080ED000AF9E780ED001A83ED001AA8
:101DB000012E04D0012D07D081ED001A35E0C0EED0
:101DC000220A60EE820A03E0C0EE220A60EEA10A57
:101DD000C1ED000A29E080ED000A0CE080ED000A68
:101DE00001E080ED001AC1ED001A0EE0C0ED000A1E
:101DF000F9E7C0ED000A81ED001A06E0C0ED000A27
:101E000001E080ED001A81ED002A012E08D0012D9D
:101E100009D00AE080ED000AF5E780ED001AEAE754
:101E200081ED002A01E0C1ED001A022A06D0032A42
:101E300011D0052A0FD0042A0DD01FE091ED000A21
:101E4000F0EE000A20EE200AF2EE020A80EE201ADE
:101E500081ED001A12E0D0ED000AF5EEC00AF1EEB5
:101E600010FAD1ED000A03D2F1EE600AC1ED000ACA
:101E700020EE800AC0EE220AC1ED000AD0ED000A71
:101E80009FED141A80EE810A80ED000AD3ED001A4E
:101E9000C1EE810AC3ED000A91ED001AF0BCFFF714
:101EA000D9B90000B501002034020020350200201D
:101EB000F601002000000000180200200000FA4394
:101EC000DB0FC9BFB8010020DB0FC93F140200209F
:101ED0001C02002000007A444D494E4A4E4891EDC4
:101EE000031A82ED001A0088403800EE100A4B48B1
:101EF000F8EEC00AC1ED130A00789FED490A9FED84
:101F0000492A0B460128D3ED141A22D005282BD0DC
:101F1000454B70EEE11AD3ED002A444B60EEA22A45
:101F200022EE800AD3ED002AC1ED140A61EEA21A56
:101F300001EEC20ADFED3E0A3E4900B3012823D07C
:101F4000022828D0032829D0052837D004283FD0DC
:101F500051E0394B70EEE11AD3ED002A374B60EEB9
:101F6000A22A22EE800ADDE7354B70EEE11AD3EDAE
:101F7000002A344B60EEA22A22EE800AD2E7F0EE6D
:101F8000411A20EE210A32E0F0EE410A20EE200A4A
:101F9000DFED2D0A2BE0DFED2D0A28E0F0EE410AFF
:101FA000F5EEC00AF1EE10FA01D2B1EE400AF0EE01
:101FB000410A20EE200ADFED260A18E0F0EE411A71
:101FC000F5EEC01AF1EE10FAD9D2B1EE400AD6E71A
:101FD000F0EE410AF5EEC00AF1EE10FA01D2B1EED0
:101FE000400AF0EE410A20EE200ADFED1A0AC0EEA8
:101FF000201AC1ED001ADFED180A184881EE200AF8
:1020000082ED000A91ED001AD0ED000AFFF722B927
:10201000380200201402002026000020B501002014
:10202000CDCCCCBDCDCCCC3DDC010020E0010020EE
:10203000005043471C020020CC010020D0010020AA
:10204000BC010020C00100200010A4460000E143B4
:1020500000DC824700089D4600007A4418020020F8
:102060002DE9F0412DED028BDFED668AFFF760F878
:10207000654E664CD8B16420FFF728F8C6ED008A9B
:10208000C4ED008AD6ED000A9FED611A614880EE2A
:10209000810AF0EE680A86ED000A94ED001AC0EDA0
:1020A000008ABDEC028BBDE8F041FFF7D3B85A4D72
:1020B0005A485B4F95ED040A86ED000A0068C0F1AE
:1020C000640000EE100AB8EEC00A85ED150A3878F3
:1020D0009FED541ADFED540A01282BD0052836D085
:1020E0005248D0ED001A524860EE211A21EE818A42
:1020F00095ED161A30EE411AD0ED001A21EE211A94
:1021000001EE608A85ED160A0020FEF7DFFF3878C1
:10211000A0B301283AD003283FD005284DD0042889
:102120005BD00228AED19FED430AC8EE000AC4ED91
:10213000000AA7E74048D0ED001A404860EE211A97
:1021400021EE818A95ED161A30EE411AD4E73C480B
:102150009FED3C1AD0ED000A3B4860EE200A20EECD
:10216000818AD5ED160A90ED001A70EE600A60EED5
:10217000810A9FED361A00EEC18AC3E7FFE795EDAD
:10218000040ADFED330A28EE000A35E095ED040A73
:10219000DFED300A28EE000A2EE096ED000AB5EEDB
:1021A000C00AF1EE10FA01D2B1EE488A95ED040AA8
:1021B000DFED290A28EE000A1EE096ED000AB5EED2
:1021C000C00AF1EE10FA01D2B1EE488A95ED040A88
:1021D000DFED220A28EE000A0EE096ED000AB5EEC9
:1021E000C00AF1EE10FA01D2B1EE488A95ED040A68
:1021F000DFED1B0A28EE000A80EE201A84ED001A9B
:1022000040E7000000000000140200201C02002033
:1022100000007A4418020020380200203800002014
:10222000B50100200AD7A3BDCDCC4C3DE401002070
:10223000E80100200000E143D4010020D801002083
:10224000C4010020CDCCCCBDC8010020CDCCCC3DFC
:102250000050434700C0284600C82F4700C0DA4658
:1022600000089D4610B502202DED048B01F054FCB2
:102270003C4C2060032001F04FFC6060042001F022
:102280004BFCA060052001F047FC3749E06009786D
:10229000062919D2DFE801F047035757475721684D
:1022A000494200EE101A6168F8EEC09A494200EE09
:1022B000101AA168B8EEC09A494200EE101A4EE01A
:1022C00000EE100AB8EEC08A9FED281A284869EE81
:1022D000810A90ED000A274860EE801AD0ED000ACE
:1022E000254881EEA02A69EE011A61EE801A80ED80
:1022F000002A81EEA02A68EE811A204828EE011AF1
:1023000061EE801A21EE000A80EE201A80ED002A8C
:102310001B4881EEA02A80ED002A1A4880ED001AA1
:10232000BDEC048B10BD94ED000AA168F8EEC09AD4
:1023300094ED010A49424042B8EEC09A00EE101AEC
:10234000F8EEC08ABCE794ED000A6168F8EEC09A26
:10235000494200EE101AB8EEC09A94ED020AF8EE67
:10236000C08AADE798810020B50100200000C84276
:102370002402002020020020488100205C810020EF
:1023800070810020848100202DE9F04100250E4657
:1023900007462C4608E03846FFF7A2FC0544052016
:1023A00004F014F9641CE4B2B442F4D3B5FBF6F0C3
:1023B00080B2BDE8F081000010B50820FFF790FC66
:1023C00007F0EEFA9FED0E1B53EC112B07F038FBD4
:1023D0009FED0D1B53EC112B07F032FB9FED0C1BF7
:1023E00053EC112B07F02CFB9FED0B1B53EC112B27
:1023F00007F026FB07F048F800EE100A10BD0000B9
:102400006666666666660A400000000000002640B8
:1024100000000040E17AF03F000000000000303F83
:10242000FEE70000174830EEC00A1749D0ED070A52
:10243000174A91ED001A70EE600A144960EE810AA5
:1024400091ED001A41EE000A90ED061A70EE810A35
:1024500010EE901AC0ED060A914203DDDFED0D0A81
:10246000C0ED060A10EE901A0B4A914203D9DFED37
:102470000B0AC0ED060A80ED070ABDEEE00A10EE79
:10248000100A704738020020EC010020F001002003
:102490000040834600408346004083C6004083C618
:1024A000174830EEC00A1749D0ED0A0A174A91EDD5
:1024B000001A70EE600A144960EE810A91ED001A6C
:1024C00041EE000A90ED091A70EE810A10EE901AA2
:1024D000C0ED090A914203DDDFED0D0AC0ED090AE6
:1024E00010EE901A0B4A914203D9DFED0B0AC0EDB2
:1024F000090A80ED0A0ABDEEE00A10EE100A7047E4
:1025000038020020EC010020F0010020004083464A
:1025100000408346004083C6004083C6174830EE23
:10252000C00A1749D0ED0D0A174A91ED001A70EE56
:10253000600A144960EE810A91ED001A41EE000A2A
:1025400090ED0C1A70EE810A10EE901AC0ED0C0A94
:10255000914203DDDFED0D0AC0ED0C0A10EE901A7A
:102560000B4A914203D9DFED0B0AC0ED0C0A80ED56
:102570000D0ABDEEE00A10EE100A70473802002086
:10258000EC010020F001002000408346004083461B
:10259000004083C6004083C6174830EEC00A174982
:1025A000D0ED100A174A91ED001A70EE600A144936
:1025B00060EE810A91ED001A41EE000A90ED0F1ACB
:1025C00070EE810A10EE901AC0ED0F0A914203DD01
:1025D000DFED0D0AC0ED0F0A10EE901A0B4A914282
:1025E00003D9DFED0B0AC0ED0F0A80ED100ABDEE36
:1025F000E00A10EE100A704738020020EC010020BB
:10260000F00100200040834600408346004083C61E
:10261000004083C61CB50121102001F091F9002172
:102620008DF80410032101208DF8051000908DF81D
:10263000070069460148FFF703FB1CBD001002407C
:102640007CB50121084601F07BF901208DF80400DA
:1026500000228DF8062003218DF80510074D4FF458
:1026600080548DF80700009469462846FFF7E8FA81
:1026700021462846FFF732FB7CBD000000000240E7
:102680002DE9F043DFF8C89087B0484602F0D0F952
:1026900001210C2001F054F90121080501F068F92D
:1026A0002C4F08220C213846FFF706FBDFF8A880E4
:1026B000082202214046FFF7FFFA02258DF8045058
:1026C0000024B8148DF8064000908DF805500126BE
:1026D0008DF8076069463846FFF7B2FA8DF8045066
:1026E00004208DF8064000908DF805508DF80760A5
:1026F00069464046FFF7A4FA35208DF818008DF89A
:1027000019608DF81A408DF81B6006A800F0EAFBEE
:102710004FF4E1200290ADF810400C20ADF80C40D1
:10272000ADF81200ADF80E40ADF8144002A94846CD
:1027300002F00CFA012240F22551484602F0EDF970
:102740000121484602F06AF907B0BDE8F0830000B5
:102750000050004000080240000C02402DE9F0410A
:1027600000200246DFED3F1A3F4D404CB0EE610ABB
:1027700001464FF093764FF4906704EBC003D3ED1E
:10278000010A10EE903A2B44B34222D934F830308B
:10279000A3F1010CBCF5E07F1BD810EE90CADFF866
:1027A000C8E0521CCEF1000ED2B2F44502DA30EE8F
:1027B000800A0AE010EE90CADFF8B4E0F44504DDC8
:1027C0009FED2C1A70EEC10AF1E7C82B01D2491C0B
:1027D000C9B2401CB842D0DB284CDFED270A284B99
:1027E000C4ED000A2AB1082906D99FED260A84ED16
:1027F000000AC3ED001A23E02348B5EEC00AC4ED79
:10280000001AF1EE10FA00780FDD28B1C4ED000ACD
:10281000022804D0012805D0B7EE080A0EE09FED8B
:102820001B0A0BE0B6EE000A08E028B1C4ED000A6E
:10283000022810D0012811D0BFEE080A83ED000A4B
:10284000134893ED001A94ED000AD0ED000ABDE89C
:10285000F041FEF7FFBC9FED0F0AEFE7BEEE000A66
:10286000ECE7000000000000000090BD64080020BC
:10287000000096430000B4439A99993E1402002048
:102880001C0200209A9999BEB5010020DB0F493F38
:1028900018020020DB0F49BF2DE9F04100215D4BFC
:1028A0005D4E4FF6FF742DED028B084640F23F65FA
:1028B0004FF4906733F83020A2F1010CAC4509D2F7
:1028C000491CA24206D2144603EBC00292ED010A53
:1028D00086ED170A401CB842ECDB96ED170A4F4A0A
:1028E00010EE100A904205DDDFED4D0A30EE600A71
:1028F00086ED170AD6ED180A47484A4D70EE600A71
:10290000C078002210EE903A401CC0B2AB4204DC0A
:1029100010EE903A444DAB4203D9F0701E2803D814
:1029200005E0F0700A2802D9F27086ED180ADFED92
:102930003F0A3F4D3F4F08290CDAF088282804D27F
:10294000401C80B2F080282857D3C7ED000AC5ED9F
:10295000000A52E0F280384938689FED388A884290
:1029600002DC374988421AD9B4F52F7F0ED296ED92
:10297000180A344910EE100A884204DC10EE100ADE
:102980003149884202D920EE080A05E096ED180A7E
:10299000FFF7D8F8B1EE400A85ED000A01E0C5ED79
:1029A000000A2A49F06DDFED2A0A884202DC294933
:1029B000884210D900EE104AB8EE400AFEF7E2FB5A
:1029C000B1EE400A87ED000A96ED180A20EE080ADB
:1029D00085ED000A07E000EE104AB8EE400AFEF767
:1029E000D1FB87ED000A9FED1C1ADFED1C0A97ED65
:1029F000000A05F0B8FA87ED000A194895ED001AAB
:102A000097ED000AD0ED000ABDEC028BBDE8F04165
:102A1000FEF720BC64080020380200200000344388
:102A20000000B44300002041000020C1000000006D
:102A30001C020020140200208FC2753D2E9020BC85
:102A40008FC275BD00007042000070C200001643C6
:102A50000000FA43000016C39A99193F9A9919BFCA
:102A6000180200202DE9F047334D00242DED028B94
:102A70002046DFED308A314FDFF8C480DFF8C4C074
:102A8000314EC5ED008A01234FF4906906EBC00179
:102A900049683944414511D2DCF8681019B936F853
:102AA0003010CCE91913DCF8642036F830106432A9
:102AB000914203D2641C00EE101AE4B2401C484557
:102AC000E4DB22489FED228A224E0078224F88B113
:102AD00001280FD0DCED190AB8EE400AF8EE600AC2
:102AE000FEF702F987ED000AC5ED008A86ED008A3F
:102AF0007CB112E0DCED190AB8EE400AF8EE600A8B
:102B0000FEF7F2F886ED000AC5ED008A87ED008A2F
:102B1000EEE786ED008A87ED008A97ED001AD6ED84
:102B2000000AB0EE680ABDEC028BBDE8F047FEF784
:102B300091BB00009A99993E14020020FFFF79BCD6
:102B4000FFFF01003802002064080020B5010020CA
:102B500000000000180200201C02002000EE900A75
:102B600041421E4AB8EEE01A00EE901A00B592ED0E
:102B7000010AF8EEE00A05F0F6F900EE900A82ED9F
:102B8000010A174AB8EEE01A00EE901A92ED010A17
:102B9000F8EEE00A05F0E7F900EE900A82ED010A8E
:102BA000104AB8EEE01A00EE901A92ED010AF8EE23
:102BB000E00A05F0D8F900EE900A82ED010A0A4A0F
:102BC000B8EEE01A00EE901A92ED010AF8EEE00A73
:102BD00005F0C9F982ED010A00BD0000488100201E
:102BE0005C8100207081002084810020FEE70000CD
:102BF0002DE9F0418846074601218AB0880400F09B
:102C0000CFFE0121022000F09BFE1F4E032209216E
:102C10003046FFF751F87015009002208DF804003F
:102C200003208DF8050000248DF8064001258DF85D
:102C3000075069463046FFF703F8144EADF8088098
:102C40000397ADF81050ADF80A4002A9304601F0E4
:102C500055FC6020ADF81400ADF81650ADF82040DA
:102C600005A9304601F022FB0821304601F04EFB59
:102C70000121304601F078FA0121304601F081FA55
:102C80000AB0BDE8F08100000004024000480140A5
:102C90002DE9F0418846074601218AB0084600F038
:102CA0007FFE0121102000F04BFE354E012209214C
:102CB0003046FFF701F801220B213046FEF7FCFFFA
:102CC00001220D213046FEF7F7FF01220E2130468A
:102CD000FEF7F2FF4FF4D440059002208DF8180063
:102CE00003208DF8190000248DF81A4001258DF875
:102CF0001B5005A93046FEF7A3FF224EADF81C80FD
:102D00000897ADF82450ADF81E4007A9304601F0F1
:102D1000F5FB6020ADF80000ADF80250ADF80C40B6
:102D20006946304601F0C2FA6946304601F0F4FACD
:102D30006946304601F03AFB6946304601F07AFBBD
:102D40000821304601F0E2FA0821304601F024FB68
:102D50000821304601F068FB0821304601F09AFB5B
:102D60000121304601F017FA0121304601F0FCF94B
:102D70000121304601F005FA0AB0BDE8F0810000FB
:102D800000100240000001402DE9F04389468046D2
:102D900001218BB0080400F003FE0121102000F097
:102DA000CFFD254F032205213846FEF785FF03227C
:102DB00006213846FEF780FF02208DF81800032018
:102DC0008DF81900002460268DF81A40012505961B
:102DD0008DF81B5005A93846FEF732FF174FADF8A6
:102DE0001C90CDF82080ADF82450ADF81E4007A906
:102DF000384601F083FBADF80060ADF80250ADF845
:102E00000C406946384601F051FA6946384601F0EF
:102E100083FA0821384601F079FA0821384601F092
:102E2000BBFA0121384601F09FF90121384601F033
:102E3000A8F90BB0BDE8F08300100240004001404B
:102E40002DE9F0418846074601218AB0480400F088
:102E5000A7FD0121022000F073FD1F4E032208216F
:102E60003046FEF729FFB015009002208DF80400CF
:102E700003208DF8050000248DF8064001258DF80B
:102E8000075069463046FEF7DBFE144EADF8088069
:102E90000397ADF81050ADF80A4002A9304601F092
:102EA0002DFB6020ADF81400ADF81650ADF82040B1
:102EB00005A9304601F0FAF90821304601F026FA5A
:102EC0000121304601F050F90121304601F059F955
:102ED0000AB0BDE8F0810000000402400044014057
:102EE0007047000030B50F23C27801780125FAB190
:102EF000144A126801F1E02102F4E062C2F5E062D6
:102F0000C2F30722C2F10404D3404278A24084787D
:102F10001C401443220181F80024007800F01F01B6
:102F20008D404009800000F1E020C0F8005130BD24
:102F300001F01F0085404809800000F1E020C0F842
:102F4000805130BD0CED00E00249084302490860A1
:102F5000704700000000FA050CED00E010B40021FD
:102F6000084B0A46002003EBC004401CC0B2625468
:102F70008028F8D3491CC9B20829F3D310BC00F04B
:102F8000D3B80000C403002010B57F2816D83F290D
:102F900014D80723A3EBD10301F00701C1F1070403
:102FA0000121A140064CDBB204EBC000002AC25C48
:102FB000C9B201D00A4300E08A43C25410BD0000E8
:102FC000C40300202DE9F04116460D4607460024B3
:102FD000FFF7DAFF324629463846FFF7D5FF2819B2
:102FE000C1B232463846FFF7CFFF641CE4B2082C6A
:102FF000F5D3BDE8F08100007CB50121082000F088
:103000009FFC01268DF8046000244FF4F0408DF8F9
:10301000064000908DF805408DF80740694640480D
:10302000FEF70EFE0121080700F0A2FC012000F0CF
:1030300081FC002000F014FD002000F07BFC394DE5
:10304000C5F8B042642005F52C7503F0BFFA2E6078
:103050000021AE2000F044F90021D52000F040F915
:103060000021502000F03CF90021A82000F038F9A0
:1030700000213F2000F034F90021D32000F030F986
:103080000021084600F02CF90021402000F028F92A
:1030900000218D2000F024F90021142000F020F9F7
:1030A0000021202000F01CF90021022000F018F976
:1030B0000021A12000F014F90021C02000F010F937
:1030C0000021DA2000F00CF90021122000F008F9AC
:1030D0000021812000F004F90021EF2000F000F928
:1030E0000021D92000F0FCF80021F12000F0F8F8D0
:1030F0000021DB2000F0F4F80021302000F0F0F88F
:103100000021A42000F0ECF80021A62000F0E8F84F
:103110000021AF2000F0E4F8FFF720FF7CBD0000A5
:10312000000C02400080414270B5104E002505F1B0
:10313000B000C0B2002100F0D3F80021084600F032
:10314000CFF80021102000F0CBF8002406EBC400DB
:103150000121405D00F0C4F8641CE4B2802CF5D37A
:103160006D1CEDB2082DE2D370BD0000C403002039
:103170002DE9F04F203A98460D468346894602F0E5
:10318000FF0A00262EE0B8F10C0F08D0174901EB1A
:103190000A100027845D200607D5099A08E0144923
:1031A0000AEB4A0001EB8000F3E7099890B1002296
:1031B00029465846FFF7E8FE6D1C6006EDB2040E86
:1031C000A5EB0901414507D10BF101004D4600F087
:1031D000FF0B05E00122EBE77F1CFFB2082FDAD3DB
:1031E000761CF6B24645CED3BDE8F08F86A6000821
:1031F00012A200082DE9FF4F81B00027DDF838B09A
:103200001D46924680463C464FF001094FEA5B0658
:1032100027E0281B401EC1B20A2003F0B1FABAFB16
:10322000F0F00A21B0FBF1F201FB120027B9691E90
:103230008C4201DA48B101273030C2B206FB04806B
:10324000C0B25B46CDF8009006E006FB0480C0B239
:103250005B462022CDF800900299FFF789FF641C9D
:10326000E4B2AC42D5D305B0BDE8F08FF8B5164650
:103270000D460446012714E07A2C02D900241035AB
:10328000EDB23A2D03D900242546FFF767FE0097DB
:1032900032780C2329462046FFF76AFF0834E4B24F
:1032A000761C30780028E7D1F8BD000070B50A4DD3
:1032B0000A4E002435F814003188884201D20122D8
:1032C00000E0002200212046FFF77CFE641CE4B2EF
:1032D000802CEFD370BD0000C40200202800002025
:1032E00030B500230E4A012411B1C2F8AC4201E00E
:1032F000C2F8AC320021C2F8B832050602D5C2F8D5
:10330000B44201E0C2F8B432C2F8B8424006491CE7
:10331000000EC9B20829EED3C2F8AC4230BD00009D
:10332000008041420020044A01461154401CC0B2B2
:103330000928FAD370470000E42D00202DE9F84356
:1033400001250746ADF800501E4800264670ADF82E
:1033500000501D4C80464FF6FF792AE0BDF8000072
:10336000384202D0C4F8B05201E0C4F8B062102074
:1033700003F048F9C4F8A052052003F043F9C4F85B
:10338000A062052003F03EF9C4F8A052D4F83C0234
:1033900030B198F80110BDF80020114388F80110F1
:1033A000102003F02FF9BDF8001009EA4100ADF834
:1033B0000000BDF80000FF28D0D9BDE8F843102078
:1033C00003F020B9E42D0020000042422DE9F00F67
:1033D0006A486C4900680968C0F180036848C1F117
:1033E00080026FF0130100688B42C0F1800002DDA3
:1033F000142B00DA0023884202DD142800DA0020B2
:103400008A4202DD142A00DA00225F4909689FED32
:103410005F0ADFF87C915F4E5F4F00297DD0DFF8B7
:103420007CC1614C6149DCF80050DFED5D2A9FED05
:103430005D2A94ED1C1AD4ED1B0A09784FF0000A9E
:10344000F7EE001A0B2D15D00C2D43D084ED120A87
:10345000D4ED1B0A9FED561A01EE903A20EE812A18
:10346000F8EEE11A62EE211AC9ED001A89B30129BA
:103470005FD066E094ED113ADFF8388173EE211ADF
:1034800011EE905AC4ED111A4545E1D170EEA20A31
:10349000CCF800A0DFF820C110EE905A84ED110A9C
:1034A000C4ED1B0A654503DDDFED440AC4ED1B0ACC
:1034B0000229CDD071EE020ADFF804C110EE905A55
:1034C000C4ED1C0A6545C3DDDFED3E0AC4ED1C0AF0
:1034D000BEE72EE094ED123ADFF8EC8073EE211A8D
:1034E00011EE905AC4ED121A4545B1D170EEE20AC0
:1034F000CCF800A0DFF8D4C010EE905A84ED120A88
:10350000C4ED1B0A654503DADFED310AC4ED1B0A81
:1035100002299DD071EE420A00E02AE010EE905A96
:10352000DFF8B0C0C4ED1C0A654591DA84ED1C2AB1
:103530008EE700EE102AB8EEC00A20EE200A20EE38
:10354000010A86ED000A94ED1C0A60EE010A00EE05
:10355000100AB8EEC00A20EE800A87ED000AB0EE2D
:10356000401AD6ED000A99ED000ABDE8F00FFDF70C
:1035700071BE89ED000A86ED000AEEE70402002024
:1035800008020020000200200001002000000000CE
:1035900014020020180200201C020020100200204B
:1035A0000AD7A33DCDCC4C3E38020020B501002007
:1035B0000000003C0000A041A4709D3FA4709D3F0E
:1035C000AE471140AE47114000007041CDCCCC3D1C
:1035D000CDCCCC3DCDCC4C3E70B5FFF7A3FE00F07A
:1035E000F7F80B480B4AB0F803400A480832448009
:1035F0000020012512F8103000F101005B1E05FAD1
:1036000003F12142C0B202D01028F3D3002070BDD4
:10361000E42D0020FC00002010B5154C0020C4F85B
:10362000A802102004F52A7402F0ECFF0120FFF735
:1036300085FE4320FFF782FE0020FFF77FFE01207A
:10364000FFF77CFE0020FFF779FE0020FFF776FEF3
:103650000020FFF773FE0020FFF770FE0020FFF749
:103660006DFE01202060BDE81040102002F0CABFAE
:103670000000424210B5154C0020C4F8A8021020EA
:1036800004F52A7402F0BEFF0120FFF757FE432025
:10369000FFF754FE0020FFF751FE0020FFF74EFE1B
:1036A0005A20FFF74BFE5A20FFF748FE5A20FFF73B
:1036B00045FE5A20FFF742FE5A20FFF73FFE012049
:1036C0002060BDE81040102002F09CBF0000424284
:1036D0007CB50121102000F033F94FF400400024A4
:1036E00000908DF8044003208DF805000C4E022553
:1036F0008DF8075069463046FEF7A2FA01218DF891
:1037000004108DF806404FF4A8508DF80550009035
:103710008DF8071069463046FEF792FA7CBD00002E
:103720000010024010B5FFF757FF1A491A4A1B4B09
:103730000860D17919601A4B117A1A4C19605379C3
:103740002360194B92791A60184B012204281BD070
:103750005868002817D0762915DA1548017800290D
:1037600011D1144902700020087014489FED120A0C
:1037700080ED000A124801781248022906D09FED18
:10378000120A80ED000A10BD5A60E4E79FED0F0AAF
:10379000F7E7000010020020E42D002000020020C6
:1037A00004020020080200200C020020FC0000207F
:1037B000F5010020F4010020CDCC4C3EA4020020F5
:1037C000B5010020A80200209A99993EDB0F493FDD
:1037D0002DE9FC4100268DF800600125ADF804506C
:1037E000224CC4F8A862224F3878FFF7A7FD7878FA
:1037F000FFF7A4FD02208DF800001E4F4FF6FF7862
:103800002CE0ADF804501DE0C4F8A052052002F0F1
:10381000F9FEC4F8A062052002F0F4FEC4F8A0523C
:10382000D4F83C0240B19DF80000BDF80410385CAB
:1038300008439DF800107854BDF8041008EA4100D0
:10384000ADF80400BDF80400FF28DDD9102002F017
:10385000D9FE9DF80000401C8DF800009DF8000086
:103860000928CED3C4F8A852BDE8FC81000042422A
:10387000FC000020E42D002010B500F00DF800F051
:103880000BF800F009F8FFF7C7FE00F027F8BDE8D5
:103890001040FFF7EFBE000010B50F4C0020C4F839
:1038A000A802102004F52A7402F0ACFE0120FFF7F4
:1038B00045FD4220FFF742FD0020FFF73FFD0020BD
:1038C000FFF73CFD0020FFF739FD01202060BDE837
:1038D0001040102002F096BE0000424210B5144C79
:1038E0000020C4F8A802012004F52A74FFF726FD81
:1038F0004420FFF723FD0020FFF720FD0120FFF704
:103900001DFD0320FFF71AFD0020FFF717FD002023
:10391000FFF714FD0020FFF711FD0020FFF70EFD5B
:1039200001202060BDE81040102002F06BBE0000B6
:1039300000004242014908627047000000000E4248
:10394000044A0029116801D0014300E0814311605D
:103950007047000030380240044A0029116801D045
:10396000014300E0814311607047000014380240B9
:10397000044A0029116801D0014300E0814311602D
:103980007047000040380240044A0029116801D005
:10399000014300E08143116070470000203802407D
:1039A000044A0029116801D0014300E081431160FD
:1039B0007047000044380240044A0029116801D0D1
:1039C000014300E081431160704700002438024049
:1039D00070B5204B1968204C11F00C0104D0661012
:1039E000042903D0082903D004601BE0066019E015
:1039F000184A121F1168C1F38055116801F03F0188
:103A000015B1B6FBF1F101E0B4FBF1F114681268F5
:103A1000C4F388146143C2F30142521C5200B1FB4B
:103A2000F2F1016019680F2202EA11110B4A545C8D
:103A30000168E14041601C68072505EA9424145D93
:103A400021FA04F484601B6805EA5333D25CD14048
:103A5000C16070BD083802400024F400300100202D
:103A6000054900220A700A70012802D0042801D1F9
:103A70000520087070470000703802402DE9F047BB
:103A80000025224F01262C46C7F8946207F52577BA
:103A9000FDF7DAFB1E4A0021C2F8901202F52472EB
:103AA000FDF7D2FB3960FDF7CFFB1160FDF7CCFBD2
:103AB0001660FDF7C9FB3960FDF7C6FB1660FDF720
:103AC000C3FB3E60FDF7C0FB3E60A7F52577FDF721
:103AD000BBFB1160FDF7B8FBDFF838908846C7F8EC
:103AE0009482FDF7B1FB0420FEF7FAF8010929F8EA
:103AF0001410641CE4B2C7F89462FDF7A5FB6D1CBA
:103B0000EDB2802DEBD3BDE8F0870000000040420D
:103B100000004142C40200200021022807D00328EF
:103B20000BD004280BD005280BD0002070474FF095
:103B30008042506A516200B27047044A02E0044A6F
:103B400000E0044A1068116000B27047240400408D
:103B500024080040240C004010B551EC100B2DED52
:103B6000068BB0EE439AF0EE629AB0EE42AAF0EE07
:103B7000618AB0EE418A05F087FCBDEECA0A15499C
:103B800010EE102ABDEEE90A086081ED018A10EE00
:103B9000103AC1ED058AC1E9022381ED049A99002A
:103BA000514300EE101A0C49B8EEC00A81ED000A2C
:103BB0009FED0A0A0A4929EE000A81ED000A094927
:103BC0000860094880ED008A0848C0ED008ABDEC15
:103BD000068B10BDA881002020020020DB0F494089
:103BE00024020020280200202C02002030020020A5
:103BF00010B5324C4FF4AD700A2120600920FEF759
:103C0000C3FB216890FBF1F02D49C0B20528087074
:103C100001D905200870C0B29FED2A1A9FED2A3AFB
:103C2000062849D2DFE800F003101B262F3AF0EEF9
:103C3000411A9FED263AF2EE0A2AB3EE0E2A9FEDC4
:103C4000241A9FED240B33E09FED243AF2EE0A2A6A
:103C5000B3EE0E2ADFED221A9FED220B28E0F0EEE4
:103C6000411AF2EE0A2AB3EE0E2A9FED201A9FEDBA
:103C7000200B1DE0F2EE0A2AB3EE0E2AF0EE411AF6
:103C80009FED1D0B14E0F0EE411AF2EE0A2AB3EE9E
:103C90000E2A9FED1B1A9FED1B0B09E09FED1B3AAF
:103CA0009FED1B0BF2EE0A2AB3EE0E2AF0EE411A3C
:103CB000BDE81040FFF750BF10BD0000F801002024
:103CC000B501002000000000B81E853D9A99993D7D
:103CD0007B14AE3D022B8716D9CEB73F8FC2753D00
:103CE000E17A943E0000000000000000BC74133E26
:103CF000000000806ABCC43F000000A0EFA7C63FE0
:103D0000E926313E000000C09DEFC73FC520303D91
:103D1000000000E07A14CE3F2DE9F04188460646C7
:103D20008AB001210220FFF73BFE01210420FFF7AA
:103D300007FE02208DF818000002059003208DF880
:103D4000190000241E4F8DF81A4001258DF81B50D4
:103D500005A93846FDF774FF032209213846FDF70F
:103D6000ABFF0896174EADF81C80ADF82440ADF8B7
:103D70001E4007A9304600F0C1FB6020ADF80000EE
:103D8000ADF802500294ADF80C40ADF81040694611
:103D9000304600F04FFB0821304600F07BFB01214C
:103DA000304600F0F8F90121304600F0EAF9054903
:103DB00040F2DC50403108600AB0BDE8F0810000FC
:103DC00000080240000401400CB50022274900927F
:103DD0000192086840F4803008604FF4A0430868FE
:103DE00000F4003001900098401C0090019810B938
:103DF00000989842F3D10868800334D501200190DF
:103E00001A484030026842F0805202601848026846
:103E100042F44042026015480830026802600268BD
:103E200042F400420260026842F4A0520260031FA2
:103E3000104A1A600A6842F080720A600A689201A9
:103E4000FCD50D4940F205720A60016821F00301BA
:103E50000160016841F0020101600168C1F3810164
:103E60000229FAD10CBD01920CBD000000380240BD
:103E70000070004008544007003C0240F0B5174E67
:103E8000174F059D44F2A014002803DA3460204443
:103E9000386002E03C60201A30601248002903DAE2
:103EA00044632144816302E08463611A41630E48E4
:103EB000002A03DA44631119816302E08463A11AC2
:103EC0004163002B03DA04641919C16302E0C4637F
:103ED000E11A016405480560F0BD00003448014066
:103EE00034440140004001400000014040040140D2
:103EF00000B5B0EE412AF0EE602AB0EE401A9FED18
:103F0000490A4948D0ED001ADFED480AB5EEC01A5B
:103F1000F1EE10FA02DD71EE801A0EE0B5EEC01A75
:103F2000F1EE10FA02D271EEC01A06E0B5EEC01A38
:103F3000F1EE10FA03D161EEA01AC0ED001A3A4971
:103F4000F5EEC02AD1ED011AF1EE10FA02DD71EEA4
:103F5000801A0EE0F5EEC02AF1EE10FA02D271EEF0
:103F6000C01A06E0F5EEC02AF1EE10FA03D161EEB8
:103F7000A01AC0ED011A2C49B5EEC02AD1ED021AE3
:103F8000F1EE10FA02DD31EE800A0EE0B5EEC02A45
:103F9000F1EE10FA02D231EEC00A06E0B5EEC02A08
:103FA000F1EE10FA03D121EEA00A80ED020AB0EE84
:103FB000410A02F093FBF0EE400AB0EE410A02F033
:103FC0008DFBF1EE401AB0EE601A90ED000AF0EEB3
:103FD000610A03F0C8FF80ED000AB0EE620A02F049
:103FE0007DFBB0EE401AB0EE620A02F077FBF1EE14
:103FF000400A90ED010A03F0B6FF80ED010AB0EE31
:10400000420A02F06BFBB0EE401AB0EE420A02F038
:1040100065FBF1EE400A90ED020A03F0A4FF80ED8B
:10402000020A00BD0AD7233C3C8100206666663F39
:104030004FF0E0210428086903D020F00400086153
:10404000704740F00400FAE710B504F0B5FF01280E
:1040500003D0BDE8104004F0A3BC10BD124810B559
:10406000016841F4700101601048016841F00101EC
:1040700001600E4A00210832116002680C4B1A40A0
:104080000260031D0B4A1A60026822F4802202605B
:1040900006480C300160FFF797FE03494FF00060BF
:1040A0008039086010BD000088ED00E00038024053
:1040B000FFFFF6FE1030002470B5048C24F00104DC
:1040C0000484058B048C4FF6FF7606EA0313134332
:1040D00025F0F3052B4324F00A020A4342F00101C4
:1040E0000383018470BDF0B5048C24F010040484B3
:1040F000078B068C4FF6FF7404EA011527F473470B
:1041000004EA0331394304EA02220A4326F0A001FB
:10411000294341F0100102830184F0BD4FF080403B
:10412000018A018A21F00101018270470348018858
:10413000018821F001010180704700001004004057
:1041400003480188018821F00101018070470000C7
:104150001008004003480188018821F00101018016
:1041600070470000100C00400029018802D041F087
:10417000800101E021F0800101807047C943018284
:1041800070470029018802D041F0010101E021F0CF
:10419000010101807047002930F8441F02D041F42A
:1041A000004101E0C1F30E010180704770B505893F
:1041B000048B068C25F007050D434FF6FC410C409F
:1041C00040F201110C434FF6FF7101EA031126F092
:1041D00022061143314305810483018470BD2DE91A
:1041E000F0410C460E884988A2882389054616B3FB
:1041F000042E28D0082E2E8C4FF6FF702BD026F4DC
:1042000080562E84AF8B2E8C00EA022200EA013108
:1042100027F473473A4300EA0330104326F4204260
:104220000A4342F48051A8832984E1882846BDE8E6
:10423000F04100F057B9FFF73FFFE1882846BDE89D
:10424000F04100F033B9FFF74EFFE1882846BDE8A2
:10425000F04100F033B926F480762E84AF8B2E8C9B
:1042600000EA012100EA0310104327F0F307384366
:1042700026F420620A4342F48071A8832984E188ED
:104280002846BDE8F04100F025B9002101804180B9
:1042900001228280C18001817047002A828901D079
:1042A0000A4300E08A4382817047000030B5028CE7
:1042B00022F001020284028C8388048B22F0020225
:1042C00024F073050C882C438D8915434A882A43B2
:1042D0000C4DA84202D00C4DA8420DD122F0080589
:1042E000CA8923F440732A4322F004058A882A43AA
:1042F0000D8A1D434B8A2B43838004838968416365
:10430000028430BD0000014000040140028B22F015
:1043100008020A430283704770B5028C22F0100233
:104320000284028C8388048B0D8824F4E6464FF6C1
:10433000FF7404EA052535438E8922F0200204EA41
:10434000061616434A8804EA02123243104EB0425F
:1043500002D0104EB04215D122F08006CA8923F453
:10436000406304EA0212324322F040068A8804EADB
:10437000021232430E8A04EA86061E434B8A04EA7E
:10438000830333438380058389688163028470BD1E
:104390000000014000040140028B4FF6FF7322F43D
:1043A000006203EA012111430183704770B5028C5A
:1043B00022F480720284028C8388848B0D8824F01E
:1043C000730425438E894FF6FF7422F4007204EAC9
:1043D000062616434A8804EA02223243104EB042AF
:1043E00002D0104EB04215D122F40066CA8923F4DF
:1043F000405304EA0222324322F480668A8804EAA7
:10440000022232430E8A04EA06161E434B8A04EA4D
:1044100003133343838085838968C163028470BD3D
:104420000000014000040140828B22F008020A4390
:104430008283704770B5028C22F480520284058C0E
:104440008288838B0C8823F4E6464FF6FF7303EAD9
:104450000424344325F400568D8903EA0535354399
:104460004E8803EA06362E43084DA84202D0084D76
:10447000A84205D122F480450A8A03EA82122A431F
:104480008280848389680164068470BD00000140D5
:1044900000040140828B4FF6FF7322F4006203EAAE
:1044A000012111438183704741627047028B22F0E2
:1044B0000C020283028B0A4302837047028B22F4B0
:1044C00040620283028B4FF6FF7303EA01210A4325
:1044D00002837047828B22F00C028283828B0A4314
:1044E00082837047828B22F440628283828B4FF6F4
:1044F000FF7303EA01210A438283704730B50288C3
:10450000164C174DA0420DD0A8420BD0B0F1804FF1
:1045100008D0144B984205D0134B984202D0134B4D
:10452000984203D122F070034A881A43104B9842F4
:1045300006D0104B984203D022F440730A891A43E4
:1045400002804A68C2620A880285A04201D0A8425D
:1045500001D1897A01860121818230BD00000140AC
:10456000000401400004004000080040000C00402E
:1045700000100040001400404FF0FF314160002166
:104580000180018141808172704700000A2809DBA7
:104590000548D0F80C0228B104480078012801D061
:1045A000002070470120704700804142B401002084
:1045B00070B5594C40F22551204600F08FFA002882
:1045C0005BD0204600F018FB544C5549002522785A
:1045D000C0B26C2A51D2DFE802F0363E4651545840
:1045E0005B5E66705E66705E66705E66705E66706C
:1045F0005E66705E66705E66705E66705E66705E59
:1046000066705E66705E66705E66705E66705E6640
:10461000705E66705E66705E66705E66705E667026
:104620005E66705E66705E66705E66705E66705E28
:1046300066705E66705E66705E66705E66705E6610
:10464000707D7D868A8EA5280FD10870012020708C
:104650006078A53010E05A2807D1487002202070F9
:1046600060785A3008E06C2801D0257051E08870DD
:104670000320207060786C30607070BDC8700421B9
:1046800001E008710521217014E048710621FAE764
:1046900088710721F7E7A37800F07F0503EB430358
:1046A0001944CD7104E0A37803EB43031944087265
:1046B000521C227061780844DEE7A378521C03EB99
:1046C000430529445B1C487222706178084460707D
:1046D000A37070BD521C2270617808446070A0788D
:1046E000401CA07070BD81F867006A21CBE781F89B
:1046F00068006B21C7E781F869002570A5706178B3
:10470000884202D101F0B8FE03E06A210448FBF7B9
:1047100046FF657070BD0000005000407000002032
:10472000F807002010B5064C40F22551204600F055
:10473000D5F910B1204600F05FFA002010BD00004E
:10474000001001402DE9F04740F225512DED048B7A
:10475000974800F0C3F9002874D09548001D0088E0
:10476000944A954E954F964B01210025954C4B2828
:1047700008D0492808D04A2806D01B782BB1012B35
:104780000BD01BE019700CE01D70A0F14103072B4A
:1047900032D9082811DC107010E0432808D04728CF
:1047A00009D035703D7041281CD045281AD004E04E
:1047B0003570397001E031703D7015709FED820ADF
:1047C000824EDFF80C82DFF80C929FED839ADFF8BF
:1047D0000CA2582814D0592817D07B2821D07D2826
:1047E00025D018E063685B1C6360052B04D17C4B0B
:1047F000656019707B4B1D70A0F140031370DDE7FD
:10480000D8ED000A30EE800A03E0D8ED000A30EE61
:10481000C00A88ED000A2278012A03D0022A08D0B3
:10482000A1E0217061787054491C61709BE0022006
:104830002070F078502806D07078232805D0607852
:10484000A0702AE0AAE06848017083E06178081A45
:1048500005F08FF841EC110B9FED640B00F0ECF9C3
:10486000A778B0EE408AF019F0EE608A10F8010CDB
:10487000303805F07EF853EC182B05F0E1F841ECE8
:10488000180BA06805F0D2FB53EC182B04F02EFE99
:1048900004F0FAFD7F1EA060A770A0780428D5D28E
:1048A0005448007830B1062819D005282CD00428A7
:1048B0003FD04FE07078303803284BD2DFE800F06B
:1048C00002070B0094ED020A88ED000A42E094ED25
:1048D000020A49483CE094ED020A484838E0707802
:1048E0003038032836D2DFE800F002070B0094EDE1
:1048F000020A8AED000A2DE094ED020A404827E002
:1049000094ED020A3F4823E070783038032821D222
:10491000DFE800F002070B0094ED020A89ED000ABF
:1049200018E094ED020A384812E094ED020A374884
:104930000EE07078303803280CD2DFE800F0020671
:10494000340094ED020A324802E094ED020A314844
:1049500080ED000A25706570A57084ED029A322101
:104960001A48FBF7FAFD98ED000AB5EEC00AF1EE21
:1049700010FA01D288ED009A99ED000AB5EEC00A4E
:10498000F1EE10FA01D289ED009A9AED000AB5EE27
:10499000C00AF1EE10FA01D28AED009A0020BDECB7
:1049A000048BBDE8F08794ED020A1B48D0E70000B5
:1049B00000440040F60100203402002035020020AF
:1049C00036020020640000200000C842C407002016
:1049D000B80100204402002000000000480200202E
:1049E000F4010020F5010020370200200000000043
:1049F000000024403C020020EC010020F0010020D7
:104A0000E4010020E8010020DC010020E00100209A
:104A1000980000209C000020A0000020002981892F
:104A200002D041F4005101E021F40051818170472E
:104A3000224910B5884206D101211020FEF7BCFFA3
:104A40000021102020E01E49884202D101214C049F
:104A500029E01C49884202D101218C0423E01A4933
:104A6000884202D10121CC041DE01849884202D1BC
:104A700001210C0517E01649884209D101212020A7
:104A8000FEF79AFF00212020BDE81040FEF794BFFA
:104A90001049884202D101218C0704E00E49884266
:104AA0000AD1012144052046FEF76EFF2046BDE8ED
:104AB00010400021FEF768BF10BD0000001001404B
:104AC0000044004000480040004C004000500040BE
:104AD0000014014000780040007C004070B501F0F7
:104AE0001F0501260024C1F3421306FA05F2012B2B
:104AF0000FD0022B0FD0838A4FEA11210088134276
:104B000006FA01F600EA060001D000B101242046B1
:104B100070BD8389F0E7038AEEE710B5C1F3421355
:104B200001F01F040121A140012B07D0022B07D067
:104B30001430002A026805D00A4304E00C30F8E77C
:104B40001030F6E78A43026010BD00007FB50446CE
:104B5000008A0D46C98820F4405001432182A08973
:104B600041F20C618843A9882A8911436A8902436A
:104B70001143A181A08A20F44071A8890843A08232
:104B80006846FEF725FF1A48844202D0194884423D
:104B900001D1039800E00298A189090400EBC0014B
:104BA00001EB0010296801D5490000E08900B0FB45
:104BB000F1F06422B0FBF2F109010B096FF0180566
:104BC0006B4300EB8300A3891D044FF0320306D52D
:104BD00003EBC000B0FBF2F000F0070005E003EBD0
:104BE0000010B0FBF2F000F00F00084320817FBD01
:104BF00000100140001401408088C0F30800704795
:104C0000FEE703B401984100009850EAC12018BFA4
:104C100004204A0D18BF40F0010040F2FF72B2EBD1
:104C2000515F08BF40F00200012808BF052002B014
:104C300070470000000000002DE9F04D2DED040B41
:104C40002DED0E8B96B0DDE92550279CDDF890A068
:104C500025F0004624F00048BAF1000F14BF0121EE
:104C6000002101EB4502FC4953184A1093422AD314
:104C7000002814BF0123002303EB44030B44F7492E
:104C80008B4220D358EA00019FEDF59B76D0DFF8E8
:104C9000D8B35D4503D1BAF1000F05D188E0BAF170
:104CA000000F08BF002100D0012101EB450111F5E3
:104CB000001F08D8002814BF0121002101EB440186
:104CC00011F5001F0BD99DED261B9DED240B16B091
:104CD000BDEC0E8B04B0BDE8F04D01F0B7BA002773
:104CE000002DBCBFE149884521DAE1498845A8BFCC
:104CF00002271CDAC3451ADCDE4901EB28511429CE
:104D000008DDC1F1340220FA02F101FA02F2824216
:104D10000DD108E058B9C1F1140228FA02F101FAE4
:104D200002F2424503D101F00101C1F1020756EA46
:104D30000A0124D1002C22DA002D18BF022F01D045
:104D4000012F0AD00220FBF75AFC16B0BDEC0E8BE7
:104D500004B0BDE8F04D01F057BA0220FBF74FFC5C
:104D600001F052FA51EC100B04F082FB41EC100BF5
:104D700016B0BDEC0E8B04B0BDE8F08D18E09FEDD1
:104D8000BEAB9FEDBF8B002871D1B848804522D1C2
:104D900005F1804010F5801008BFBAF1000F07D070
:104DA000B3450ADC002CA8BF9DED260BE0DA0DE030
:104DB000B0EE490AF0EE690ADAE7002C06DA9DED5A
:104DC000260B51EC100B04F053FB6FE0AE48784417
:104DD00090ED000BCCE7D8454DD1002C48DA2EB130
:104DE00086423AD1BAF1000F42D126E0BAF1000F63
:104DF00013D00220FBF703FC01F042FA8DED020B09
:104E00009DED240B8DED000B10EE900A039961F3DC
:104E10001E0003909DED020BAAE78DED02AB9DED08
:104E2000240B1AEE901A10EE900A8DED000B61F330
:104E30001E0003909DED020B9AE78DED028B9DED18
:104E4000240B18EE901A10EE900A8DED000B61F312
:104E50001E0003909DED020B8AE709DA9DED240BFD
:104E600051EC190B53EC102B04F0FCFB1EE020E07E
:104E70009DED240B7CE786421BDAB4F1804F0DD008
:104E8000A4F10050B0F1FF5013D1002D11DB9DEDC6
:104E9000240B51EC100B02F083FF07E09DED240B77
:104EA00053EC102B51EC100B00F0C2BC41EC100B7A
:104EB0005EE79DED240B51EC100B01F003FCBAF101
:104EC000000FCDE90E0142D19FED710B46B3A6F163
:104ED000E040B0F17F600CD05E4538D1002D00DAA3
:104EE000A7B3022F0CBF01204FF0FF3004F041FDAB
:104EF000DCE7002D01DD002C0DDA002D01DD002C9A
:104F00001FDB002D16DA002C14DB012F08BF9FEDEC
:104F1000620B3FF42DAFB0EE4A0AF0EE6A0A27E7C3
:104F2000022F18BF002D0CD0012F0AD1002DFFF643
:104F30001FAF06E0002DB8BF002C08DA012F3FF4A8
:104F400017AFB0EE480AF0EE680A11E71BE0012047
:104F500000EBE57050EA070115D0791EB0EE498AE2
:104F6000F0EE698A084308BF9FED4D8B4E4800253F
:104F7000804570DD4D494E48884514DDB0420DDB5B
:104F8000002C19DB2FE00120FBF739FB16B0BDEC3C
:104F90000E8B04B0BDE8F04D01F062B9B34502DC00
:104FA000002C09DC1FE0864202DA002C1BDA03E049
:104FB0005E452BDD002C16DD0220FBF720FB01F007
:104FC0005FF98DED020B53EC1A2B51EC180B04F02A
:104FD00037FDCDE900010399019861F31E000390AC
:104FE0009DED020BC4E60220FBF709FB01F058F926
:104FF00010EE901A18EE900A8DED020B8DED008BDD
:1050000061F31E0003909DED020BB1E69DED0E0BCA
:1050100053EC192B51EC100B04F01EFF9FED260BE7
:10502000CDE9080153EC102B9DED080B51EC100B52
:1050300004F006FD9FED221B53EC112B04F034FE0F
:105040009DED081B53EC112B04F0FAFC9FED1E1B89
:1050500053EC112B3CE08CE0FFFF1F00FFFF0F0023
:10506000000000000000F03F0000F03F0000F07F73
:105070000000404301FCFFFF000000000000F07F43
:1050800000000000000000006E6900000000000049
:105090000000000000000080000000000000F0FFA1
:1050A000000000000000F0BF0000E0410000F043FD
:1050B000FFFFEF3F00000000000000000000D03FB5
:1050C000555555555555D53F000000000000E03FAF
:1050D00004F0EAFD9DED080B41EC1A0B53EC102B8C
:1050E00051EC100B04F0ACFC53EC1A2B04F0A8FCB0
:1050F00041EC1A0B9FEDFE0B53EC102B9DED080BB2
:1051000051EC100B04F09CFC41EC1B0B9FEDFA0BD7
:1051100051EC1A0B53EC102B04F092FC41EC1A0BDF
:105120009FEDF70B53EC102B9DED080B51EC100B82
:1051300004F086FC53EC1A2B04F08EFE41EC1A0BA3
:1051400051EC1B0B53EC1A2B04F0D0F90690CDE96F
:1051500006519DED060B53EC1B2B51EC100B04F08C
:105160007BFE53EC1A2B04F09FFD41EC100B00F07A
:10517000A1B90020B6F5801F0EDA9FEDE30B53ECCA
:10518000102B9DED0E0B51EC100B04F059FCCDE9EA
:105190000E016FF034000E4600EB2650A0F2FF37F0
:1051A000C6F31300DA4940F07F6646F04056884265
:1051B000D8BF002408DDD7498142C8BF012403DCE1
:1051C0000024A6F580167F1CD348784400EBC40069
:1051D0000F9690ED00CB9DED0E0B53EC1C2B51EC7C
:1051E000100B04F039FE9DED0E0B41EC1B0B53EC44
:1051F0001C2B51EC100B04F079F941EC100B51EC25
:10520000190B53EC102B04F02DFA41EC1D0B51EC53
:105210001B0B53EC1D2B04F013FC41EC1A0BBF4885
:105220008DED10AB7844109590ED000B4FF00050D1
:1052300040EA660000EB84408DED080B00F500208D
:1052400009909DED080B53EC1C2B51EC100B04F056
:1052500003FE9DED0E1B53EC112B04F025FD41ECDC
:10526000100B53EC102B9DED100B51EC100B04F0B8
:10527000E7FB9DED080B41EC1C0B53EC102B9DED57
:10528000100B51EC100B04F0DBFB53EC1B2B04F068
:105290000BFD53EC1C2B04F0DFFD53EC1D2B04F035
:1052A000CFFB41EC1C0B53EC1A2B51EC1A0B04F006
:1052B000C7FB41EC1B0B9A480621B0EE4B0AF0EEFF
:1052C0006B0A784400F07CFDB0EE401AF0EE601AF4
:1052D000B0EE41DAF0EE61DA53EC1B2B51EC1B0B14
:1052E00004F0AEFB53EC1D2B04F0AAFB9DED100B5C
:1052F00041EC1B0B53EC1A2B51EC100B04F0F6F89D
:1053000053EC1C2B04F09CFB53EC1B2B04F0EEF82D
:105310009DED100B41EC1B0B53EC102B51EC100BC3
:1053200004F08EFB41EC1D0B9FED7FEB53EC1E2B2D
:1053300004F0DCF853EC1B2B04F0D8F80890CDE90E
:1053400008519DED080B53EC1E2B51EC100B04F093
:1053500083FD53EC1D2B04F07FFD53EC1B2B04F05D
:10536000A3FC9DED080B41EC1D0B53EC102B9DEDA8
:10537000100B51EC100B04F063FB41EC1B0B53ECD6
:105380001A2B51EC1D0B04F05BFB9DED080B41EC5F
:105390001A0B53EC102B51EC1C0B04F051FB53EC8B
:1053A0001A2B04F0A3F841EC1A0B51EC1B0B53EC35
:1053B0001A2B04F09BF80C90CDE90C519DED0C0BD1
:1053C00053EC1B2B51EC100B04F046FD53EC1A2B45
:1053D00004F06AFC41EC1B0B9FED550B53EC102BBA
:1053E0009DED0C0B51EC100B04F02AFB41EC1A0B59
:1053F0009FED510B51EC1B0B53EC102B04F020FBD9
:1054000041EC1B0B9FED4E0B53EC102B9DED0C0B49
:1054100051EC100B04F014FB53EC1B2B04F066F85A
:1054200041EC100B4848784400EBC40090ED001BA1
:1054300051EC100B53EC112B04F058F841EC1B0B02
:10544000384604F096FACDE9080153EC1B2B51ECD9
:105450001A0B04F04BF841EC100B3C48784400EB7D
:10546000C40090ED00CB51EC100B53EC1C2B04F05E
:105470003DF89DED081B53EC112B04F037F8069016
:10548000CDE906519DED080B53EC102B9DED060B5D
:1054900051EC100B04F0E0FC53EC1C2B04F0DCFC92
:1054A00053EC1A2B04F0D8FC53EC1B2B04F0FCFB40
:1054B00041EC100B9DED261B53EC102B8DED001BCA
:1054C00000959DED260B51EC100B04F0B9FA9DED03
:1054D000000B41EC1A0B53EC102B9DED260B51ECFD
:1054E000100B04F0B9FC9DED061B53EC112B2FE0C3
:1054F000000000604715F73FFE822B654715F73F18
:1055000044DF5DF80BAE543E000000000000404355
:105510008E9803007AB60B00EA640000186500005C
:1055200022640000000000000000000000000840AD
:10553000000000E009C7EE3FFD033ADC09C7EE3F7B
:10554000F5015B14E02F3EBEAE6200006862000011
:1055500004F076FA53EC1A2B03F0C8FF9DED060B0E
:1055600041EC1A0B53EC102B9DED000B51EC100B82
:1055700004F066FACDE90C019DED0C0B51EC1A0B11
:1055800053EC102B03F0B2FFCDE902010C46AA49FF
:105590008C422FDB611A084318D19DED0C0B53ECA4
:1055A000102B9DED020B51EC100B04F055FC41EC5F
:1055B0001B0B9FEDA30B51EC1A0B53EC102B03F0BC
:1055C00095FF53EC1B2B04F039FB2DD20220FBF787
:1055D00016F800F055FE10EE901A18EE900A8DEDB8
:1055E000020B8DED008B61F31E0003909DED020B0D
:1055F000FFF7BEBB944A24F00041914214D3934973
:10560000214408437FF4EFAC9DED0C0B53EC102BC1
:105610009DED020B51EC100B04F01EFC53EC1A2B09
:1056200004F00CFB7FF6DFAC24F000408849894A87
:10563000002601EB205182422BDA481C4FF48011E6
:1056400021FA00F02044844AC0F30A517A44A1F2BE
:10565000FF3192ED000B814A8DED080BCA4020EA24
:105660000202C0F3130040F48010C1F1140120FACB
:1056700001F60992002CB8BF76429DED080B53EC61
:10568000102B9DED0C0B51EC100B04F0E5FBCDE95C
:105690000C019DED0C0B51EC1A0B53EC102B03F08D
:1056A00025FF9FED6F0B0890CDE9085153EC102BAF
:1056B0009DED080B51EC100B04F0C2F941EC1B0BF3
:1056C0009FED690B53EC102B9DED080B51EC100B6B
:1056D00004F0B6F99DED0C0B41EC1C0B53EC102BB8
:1056E0009DED080B51EC100B04F0B6FB53EC1A2B9C
:1056F00004F0DAFA9FED5E1B53EC112B04F0A0F9D5
:1057000053EC1C2B03F0F2FE41EC1A0B51EC1B0B7B
:1057100053EC1A2B03F0EAFECDE902019DED020BDA
:1057200053EC1B2B51EC100B04F096FB53EC1A2B93
:1057300004F0BAFA9DED020B41EC1A0B53EC102B5E
:1057400051EC100B04F07CF9CDE908014A489DEDBD
:10575000080B0521784400F033FB9DED081B51EC4C
:10576000100B53EC112B04F06BF99DED021B53EC65
:10577000112B04F099FACDE906019DED020B53ECD3
:105780001A2B51EC100B04F05BF953EC1A2B03F0BD
:10579000ADFE9FED3B0B41EC1A0B53EC102B9DED36
:1057A000060B51EC100B04F057FB9DED060B41EC82
:1057B0001B0B53EC102B9DED020B51EC100B04F066
:1057C0003FF953EC1B2B03F04DFF53EC1A2B04F065
:1057D00043FB9DED021B53EC112B04F03DFB53ECFE
:1057E000192B04F061FACDE9020101EB0650011515
:1057F0000029C8BF039015DC9DED020B324651EC29
:10580000100B04F0C0FCFFF7FCF9042808BF00F0FF
:1058100047FD32469DED020B51EC100B04F0B3FC3A
:10582000CDE902019DED020B51EC180B53EC102B4E
:1058300004F006F9FFF73ABB0000904000000000BA
:10584000FE822B654715973C00CC904000346F3F9B
:1058500001FCFFFF0000E03FF0600000FFFF0F00D1
:1058600000000000432EE63F396CA80C615C20BEAE
:10587000EF39FAFE422EE63FC05F00000000000054
:10588000000000000000004000B52DED048BB0EEDC
:10589000409AF0EE609A83B051EC190B04F010FAC4
:1058A00041EC180B18EE100A18EE901A8DED008BD3
:1058B000002818BF0120084320F00040C0F17F609D
:1058C00000F1E040C00F14D019EE101A19EE900A42
:1058D0008DED009B002918BF0121084320F00040F6
:1058E000C0F17F6000F1E040C00F04BF0120FAF773
:1058F00086FEB0EE480A03B0F0EE680ABDEC048BF9
:1059000000BD00000000000010B51D499FED1A1BEE
:105910002DED020B84B0059820F000408842DCBFDA
:1059200001209DED040B21DD1649884209D1049820
:1059300040B94FF00100FAF762FE00F091FC06B0AA
:1059400010BD05DB9DED040B00F076FC06B010BD2C
:1059500068469DED040B00F017F800F001000121EE
:10596000A1EB40009DED021B9DED000B00F0A4FAA1
:1059700006B010BD000000000000000000000000A4
:10598000FB21E93F0000F07F2DE9F14F04462DEDAA
:10599000020B2DED088B8AB09FEDE70B80ED020B1B
:1059A000139EE74826F0004585420ADC9DED120B68
:1059B000002084ED000B0AB0BDEC088B03B0BDE8FD
:1059C000F08FE0489FEDE0AB9FEDE1BBA84247DDE3
:1059D000E14F9FEDE39B9FEDE48B9DED120B53ECAC
:1059E0001A2B51EC100B002E1CDD04F035FA41ECA3
:1059F000100BBD4208D053EC1B2B51EC100B04F0E4
:105A00002BFAC4E900010BE053EC192B51EC100BFD
:105A100004F022FA53EC182B04F01EFAC4E900013A
:105A20000120C8E703F062FD41EC100BBD4208D035
:105A300053EC1B2B51EC100B03F058FDC4E9000193
:105A40000BE053EC192B51EC100B03F04FFD53EC12
:105A5000182B03F04BFDC4E900014FF0FF30AAE71B
:105A6000C348A84279DB9DED120B51EC100B00F0FE
:105A700029FE41EC180B9FEDC00B53EC102B03F0EB
:105A8000DFFF9FEDBF1B53EC112B03F02FFD03F045
:105A900041FF074603F06DFF41EC190B53EC1A2B45
:105AA00003F0CEFF53EC182B04F0FEF841EC180B7A
:105AB00053EC1B2B51EC190B03F0C2FFDFF8C8A20B
:105AC00041EC100B4FEA15580125FA4453EC102B0A
:105AD00051EC180B04F0C0F9032DC4E900013DD0CE
